{
  "contractName": "Permissions",
  "abi": [
    {
      "inputs": [],
      "stateMutability": "nonpayable",
      "type": "constructor"
    },
    {
      "anonymous": false,
      "inputs": [
        {
          "indexed": false,
          "internalType": "address",
          "name": "currentStaker",
          "type": "address"
        }
      ],
      "name": "DebugEvent",
      "type": "event"
    },
    {
      "inputs": [
        {
          "internalType": "uint256",
          "name": "",
          "type": "uint256"
        }
      ],
      "name": "addressToClient",
      "outputs": [
        {
          "internalType": "address",
          "name": "client",
          "type": "address"
        },
        {
          "internalType": "uint256",
          "name": "timestamp",
          "type": "uint256"
        },
        {
          "internalType": "bytes32",
          "name": "hash",
          "type": "bytes32"
        }
      ],
      "stateMutability": "view",
      "type": "function",
      "constant": true
    },
    {
      "inputs": [],
      "name": "blanksPrinted",
      "outputs": [
        {
          "internalType": "uint256",
          "name": "",
          "type": "uint256"
        }
      ],
      "stateMutability": "view",
      "type": "function",
      "constant": true
    },
    {
      "inputs": [
        {
          "internalType": "bytes32",
          "name": "",
          "type": "bytes32"
        }
      ],
      "name": "clients",
      "outputs": [
        {
          "internalType": "address",
          "name": "client",
          "type": "address"
        },
        {
          "internalType": "uint256",
          "name": "timestamp",
          "type": "uint256"
        },
        {
          "internalType": "bytes32",
          "name": "hash",
          "type": "bytes32"
        }
      ],
      "stateMutability": "view",
      "type": "function",
      "constant": true
    },
    {
      "inputs": [],
      "name": "owner",
      "outputs": [
        {
          "internalType": "address",
          "name": "",
          "type": "address"
        }
      ],
      "stateMutability": "view",
      "type": "function",
      "constant": true
    },
    {
      "inputs": [
        {
          "internalType": "uint256",
          "name": "",
          "type": "uint256"
        }
      ],
      "name": "spawnedGuids",
      "outputs": [
        {
          "internalType": "bytes32",
          "name": "",
          "type": "bytes32"
        }
      ],
      "stateMutability": "view",
      "type": "function",
      "constant": true
    },
    {
      "inputs": [
        {
          "internalType": "uint256",
          "name": "blanks",
          "type": "uint256"
        }
      ],
      "name": "setBlanksToPrint",
      "outputs": [],
      "stateMutability": "nonpayable",
      "type": "function"
    },
    {
      "inputs": [
        {
          "internalType": "bytes32",
          "name": "newGuid",
          "type": "bytes32"
        }
      ],
      "name": "setGuid",
      "outputs": [
        {
          "internalType": "bytes32",
          "name": "",
          "type": "bytes32"
        }
      ],
      "stateMutability": "nonpayable",
      "type": "function"
    },
    {
      "inputs": [],
      "name": "getSpawnedGuids",
      "outputs": [
        {
          "internalType": "bytes32[]",
          "name": "",
          "type": "bytes32[]"
        }
      ],
      "stateMutability": "view",
      "type": "function",
      "constant": true
    },
    {
      "inputs": [],
      "name": "getLastGuidBatch",
      "outputs": [
        {
          "internalType": "bytes32[]",
          "name": "",
          "type": "bytes32[]"
        }
      ],
      "stateMutability": "view",
      "type": "function",
      "constant": true
    },
    {
      "inputs": [],
      "name": "getGuid",
      "outputs": [
        {
          "internalType": "bytes32",
          "name": "",
          "type": "bytes32"
        }
      ],
      "stateMutability": "view",
      "type": "function",
      "constant": true
    },
    {
      "inputs": [
        {
          "internalType": "uint256",
          "name": "start",
          "type": "uint256"
        },
        {
          "internalType": "uint256",
          "name": "end",
          "type": "uint256"
        }
      ],
      "name": "getGuidRange",
      "outputs": [
        {
          "internalType": "bytes32[]",
          "name": "",
          "type": "bytes32[]"
        }
      ],
      "stateMutability": "view",
      "type": "function",
      "constant": true
    },
    {
      "inputs": [
        {
          "internalType": "bytes32",
          "name": "registerHash",
          "type": "bytes32"
        }
      ],
      "name": "addClientScan",
      "outputs": [],
      "stateMutability": "nonpayable",
      "type": "function"
    },
    {
      "inputs": [
        {
          "internalType": "address",
          "name": "clientAddress",
          "type": "address"
        }
      ],
      "name": "removeClientManual",
      "outputs": [],
      "stateMutability": "nonpayable",
      "type": "function"
    },
    {
      "inputs": [
        {
          "internalType": "address",
          "name": "clientAddress",
          "type": "address"
        },
        {
          "internalType": "bytes32",
          "name": "registerHash",
          "type": "bytes32"
        }
      ],
      "name": "addClientManual",
      "outputs": [],
      "stateMutability": "nonpayable",
      "type": "function"
    },
    {
      "inputs": [
        {
          "internalType": "address",
          "name": "addy",
          "type": "address"
        }
      ],
      "name": "findClient",
      "outputs": [
        {
          "components": [
            {
              "internalType": "address",
              "name": "client",
              "type": "address"
            },
            {
              "internalType": "uint256",
              "name": "timestamp",
              "type": "uint256"
            },
            {
              "internalType": "bytes32",
              "name": "hash",
              "type": "bytes32"
            }
          ],
          "internalType": "struct Permissions.ClientMode",
          "name": "",
          "type": "tuple"
        }
      ],
      "stateMutability": "view",
      "type": "function",
      "constant": true
    },
    {
      "inputs": [],
      "name": "printBlanks",
      "outputs": [
        {
          "internalType": "bytes32[]",
          "name": "",
          "type": "bytes32[]"
        }
      ],
      "stateMutability": "nonpayable",
      "type": "function"
    }
  ],
  "bytecode": "0x60806040527f3936333230613635343561613464306432393432376139393239626533663061600055600a6001556000600755600060085534801561004357600080fd5b5033600660006101000a81548173ffffffffffffffffffffffffffffffffffffffff021916908373ffffffffffffffffffffffffffffffffffffffff160217905550611f87806100946000396000f3fe608060405234801561001057600080fd5b50600436106101005760003560e01c806373eba75f11610097578063d8f3c40811610066578063d8f3c408146102c3578063db8e865e146102f5578063df8bb10314610313578063e6ab697c1461033157610100565b806373eba75f1461023957806378a11de9146102575780638da5cb5b14610287578063a31907b1146102a557610100565b806356414f6f116100d357806356414f6f1461018b5780635df31840146101bb5780636d331ef3146101eb5780637009d9421461020757610100565b80630a006435146101055780630dfe7ba414610135578063116f025d14610151578063489a8ff61461016f575b600080fd5b61011f600480360381019061011a91906119aa565b61034d565b60405161012c9190611d36565b60405180910390f35b61014f600480360381019061014a91906118f3565b6104e3565b005b610159610887565b6040516101669190611d36565b60405180910390f35b61018960048036038101906101849190611981565b6109d1565b005b6101a560048036038101906101a09190611981565b610a6b565b6040516101b29190611d58565b60405180910390f35b6101d560048036038101906101d0919061192f565b610a8c565b6040516101e29190611d58565b60405180910390f35b6102056004803603810190610200919061192f565b610b2f565b005b610221600480360381019061021c9190611981565b610e42565b60405161023093929190611cff565b60405180910390f35b610241610e99565b60405161024e9190611d58565b60405180910390f35b610271600480360381019061026c91906118ca565b610f33565b60405161027e9190611df3565b60405180910390f35b61028f6110ae565b60405161029c9190611ce4565b60405180910390f35b6102ad6110d4565b6040516102ba9190611d36565b60405180910390f35b6102dd60048036038101906102d8919061192f565b6111bc565b6040516102ec93929190611cff565b60405180910390f35b6102fd611206565b60405161030a9190611d36565b60405180910390f35b61031b6112ee565b6040516103289190611e0e565b60405180910390f35b61034b600480360381019061034691906118ca565b6112f4565b005b60603373ffffffffffffffffffffffffffffffffffffffff16600660009054906101000a900473ffffffffffffffffffffffffffffffffffffffff1673ffffffffffffffffffffffffffffffffffffffff16146103df576040517f08c379a00000000000000000000000000000000000000000000000000000000081526004016103d690611dd3565b60405180910390fd5b81831115610422576040517f08c379a000000000000000000000000000000000000000000000000000000000815260040161041990611db3565b60405180910390fd5b6000808484039050600081141561043857600190505b60608167ffffffffffffffff8111801561045157600080fd5b506040519080825280602002602001820160405280156104805781602001602082028036833780820191505090505b50905060008690505b858110156104d6576004818154811061049e57fe5b90600052602060002001548285815181106104b557fe5b60200260200101818152505083806001019450508080600101915050610489565b5080935050505092915050565b3373ffffffffffffffffffffffffffffffffffffffff16600660009054906101000a900473ffffffffffffffffffffffffffffffffffffffff1673ffffffffffffffffffffffffffffffffffffffff1614610573576040517f08c379a000000000000000000000000000000000000000000000000000000000815260040161056a90611dd3565b60405180910390fd5b8060006002600083815260200190815260200160002060010154905060008114156105d3576040517f08c379a00000000000000000000000000000000000000000000000000000000081526004016105ca90611d73565b60405180910390fd5b60006001905060005b60038054905081101561066d578573ffffffffffffffffffffffffffffffffffffffff166003828154811061060d57fe5b906000526020600020906003020160000160009054906101000a900473ffffffffffffffffffffffffffffffffffffffff1673ffffffffffffffffffffffffffffffffffffffff16141561066057600091505b80806001019150506105dc565b5060011515811515146106b5576040517f08c379a00000000000000000000000000000000000000000000000000000000081526004016106ac90611d93565b60405180910390fd5b801561088057600073ffffffffffffffffffffffffffffffffffffffff166002600086815260200190815260200160002060000160009054906101000a900473ffffffffffffffffffffffffffffffffffffffff1673ffffffffffffffffffffffffffffffffffffffff16141561087f57600760008154809291906001019190505550846002600086815260200190815260200160002060000160006101000a81548173ffffffffffffffffffffffffffffffffffffffff021916908373ffffffffffffffffffffffffffffffffffffffff1602179055506107956117d2565b60405180606001604052808773ffffffffffffffffffffffffffffffffffffffff1681526020016002600088815260200190815260200160002060010154815260200160026000888152602001908152602001600020600201548152509050600381908060018154018082558091505060019003906000526020600020906003020160009091909190915060008201518160000160006101000a81548173ffffffffffffffffffffffffffffffffffffffff021916908373ffffffffffffffffffffffffffffffffffffffff16021790555060208201518160010155604082015181600201555050505b5b5050505050565b60603373ffffffffffffffffffffffffffffffffffffffff16600660009054906101000a900473ffffffffffffffffffffffffffffffffffffffff1673ffffffffffffffffffffffffffffffffffffffff1614610919576040517f08c379a000000000000000000000000000000000000000000000000000000000815260040161091090611dd3565b60405180910390fd5b606060015467ffffffffffffffff8111801561093457600080fd5b506040519080825280602002602001820160405280156109635781602001602082028036833780820191505090505b50905060005b6001548110156109b25761097b611495565b82828151811061098757fe5b6020026020010181815250506008600081548092919060010191905055508080600101915050610969565b5080600590805190602001906109c992919061180c565b508091505090565b3373ffffffffffffffffffffffffffffffffffffffff16600660009054906101000a900473ffffffffffffffffffffffffffffffffffffffff1673ffffffffffffffffffffffffffffffffffffffff1614610a61576040517f08c379a0000000000000000000000000000000000000000000000000000000008152600401610a5890611dd3565b60405180910390fd5b8060018190555050565b60048181548110610a7857fe5b906000526020600020016000915090505481565b60003373ffffffffffffffffffffffffffffffffffffffff16600660009054906101000a900473ffffffffffffffffffffffffffffffffffffffff1673ffffffffffffffffffffffffffffffffffffffff1614610b1e576040517f08c379a0000000000000000000000000000000000000000000000000000000008152600401610b1590611dd3565b60405180910390fd5b816000819055506000549050919050565b806000600260008381526020019081526020016000206001015490506000811415610b8f576040517f08c379a0000000000000000000000000000000000000000000000000000000008152600401610b8690611d73565b60405180910390fd5b60006001905060005b600380549050811015610c29573373ffffffffffffffffffffffffffffffffffffffff1660038281548110610bc957fe5b906000526020600020906003020160000160009054906101000a900473ffffffffffffffffffffffffffffffffffffffff1673ffffffffffffffffffffffffffffffffffffffff161415610c1c57600091505b8080600101915050610b98565b506001151581151514610c71576040517f08c379a0000000000000000000000000000000000000000000000000000000008152600401610c6890611d93565b60405180910390fd5b8015610e3c57600073ffffffffffffffffffffffffffffffffffffffff166002600086815260200190815260200160002060000160009054906101000a900473ffffffffffffffffffffffffffffffffffffffff1673ffffffffffffffffffffffffffffffffffffffff161415610e3b57600760008154809291906001019190505550336002600086815260200190815260200160002060000160006101000a81548173ffffffffffffffffffffffffffffffffffffffff021916908373ffffffffffffffffffffffffffffffffffffffff160217905550610d516117d2565b60405180606001604052803373ffffffffffffffffffffffffffffffffffffffff1681526020016002600088815260200190815260200160002060010154815260200160026000888152602001908152602001600020600201548152509050600381908060018154018082558091505060019003906000526020600020906003020160009091909190915060008201518160000160006101000a81548173ffffffffffffffffffffffffffffffffffffffff021916908373ffffffffffffffffffffffffffffffffffffffff16021790555060208201518160010155604082015181600201555050505b5b50505050565b60038181548110610e4f57fe5b90600052602060002090600302016000915090508060000160009054906101000a900473ffffffffffffffffffffffffffffffffffffffff16908060010154908060020154905083565b60003373ffffffffffffffffffffffffffffffffffffffff16600660009054906101000a900473ffffffffffffffffffffffffffffffffffffffff1673ffffffffffffffffffffffffffffffffffffffff1614610f2b576040517f08c379a0000000000000000000000000000000000000000000000000000000008152600401610f2290611dd3565b60405180910390fd5b600054905090565b610f3b6117d2565b60005b600380549050811015611062578273ffffffffffffffffffffffffffffffffffffffff1660038281548110610f6f57fe5b906000526020600020906003020160000160009054906101000a900473ffffffffffffffffffffffffffffffffffffffff1673ffffffffffffffffffffffffffffffffffffffff1614156110555760038181548110610fca57fe5b90600052602060002090600302016040518060600160405290816000820160009054906101000a900473ffffffffffffffffffffffffffffffffffffffff1673ffffffffffffffffffffffffffffffffffffffff1673ffffffffffffffffffffffffffffffffffffffff168152602001600182015481526020016002820154815250509150506110a9565b8080600101915050610f3e565b5061106b6117d2565b6040518060600160405280600073ffffffffffffffffffffffffffffffffffffffff1681526020016000815260200160008019168152509050809150505b919050565b600660009054906101000a900473ffffffffffffffffffffffffffffffffffffffff1681565b60603373ffffffffffffffffffffffffffffffffffffffff16600660009054906101000a900473ffffffffffffffffffffffffffffffffffffffff1673ffffffffffffffffffffffffffffffffffffffff1614611166576040517f08c379a000000000000000000000000000000000000000000000000000000000815260040161115d90611dd3565b60405180910390fd5b60048054806020026020016040519081016040528092919081815260200182805480156111b257602002820191906000526020600020905b81548152602001906001019080831161119e575b5050505050905090565b60026020528060005260406000206000915090508060000160009054906101000a900473ffffffffffffffffffffffffffffffffffffffff16908060010154908060020154905083565b60603373ffffffffffffffffffffffffffffffffffffffff16600660009054906101000a900473ffffffffffffffffffffffffffffffffffffffff1673ffffffffffffffffffffffffffffffffffffffff1614611298576040517f08c379a000000000000000000000000000000000000000000000000000000000815260040161128f90611dd3565b60405180910390fd5b60058054806020026020016040519081016040528092919081815260200182805480156112e457602002820191906000526020600020905b8154815260200190600101908083116112d0575b5050505050905090565b60085481565b3373ffffffffffffffffffffffffffffffffffffffff16600660009054906101000a900473ffffffffffffffffffffffffffffffffffffffff1673ffffffffffffffffffffffffffffffffffffffff1614611384576040517f08c379a000000000000000000000000000000000000000000000000000000000815260040161137b90611dd3565b60405180910390fd5b60005b600380549050811015611491578173ffffffffffffffffffffffffffffffffffffffff16600382815481106113b857fe5b906000526020600020906003020160000160009054906101000a900473ffffffffffffffffffffffffffffffffffffffff1673ffffffffffffffffffffffffffffffffffffffff161415611484576000600260006003848154811061141957fe5b906000526020600020906003020160020154815260200190815260200160002060000160006101000a81548173ffffffffffffffffffffffffffffffffffffffff021916908373ffffffffffffffffffffffffffffffffffffffff160217905550611483816115f3565b5b8080600101915050611387565b5050565b600061149f6117d2565b6040518060600160405280600073ffffffffffffffffffffffffffffffffffffffff16815260200142815260200160005481525090506004600054908060018154018082558091505060019003906000526020600020016000909190919091505580600260008054815260200190815260200160002060008201518160000160006101000a81548173ffffffffffffffffffffffffffffffffffffffff021916908373ffffffffffffffffffffffffffffffffffffffff160217905550602082015181600101556040820151816002015590505060026000546040516020016115889190611cb2565b6040516020818303038152906040526040516115a49190611ccd565b602060405180830381855afa1580156115c1573d6000803e3d6000fd5b5050506040513d601f19601f820116820180604052508101906115e49190611958565b60008190555060005491505090565b6003805490508110611604576117cf565b60036001600380549050038154811061161957fe5b90600052602060002090600302016003828154811061163457fe5b90600052602060002090600302016000820160009054906101000a900473ffffffffffffffffffffffffffffffffffffffff168160000160006101000a81548173ffffffffffffffffffffffffffffffffffffffff021916908373ffffffffffffffffffffffffffffffffffffffff16021790555060018201548160010155600282015481600201559050506000600382815481106116cf57fe5b906000526020600020906003020160000160006101000a81548173ffffffffffffffffffffffffffffffffffffffff021916908373ffffffffffffffffffffffffffffffffffffffff1602179055506003818154811061172b57fe5b9060005260206000209060030201600080820160006101000a81549073ffffffffffffffffffffffffffffffffffffffff0219169055600182016000905560028201600090555050600380548061177e57fe5b6001900381819060005260206000209060030201600080820160006101000a81549073ffffffffffffffffffffffffffffffffffffffff021916905560018201600090556002820160009055505090555b50565b6040518060600160405280600073ffffffffffffffffffffffffffffffffffffffff16815260200160008152602001600080191681525090565b828054828255906000526020600020908101928215611848579160200282015b8281111561184757825182559160200191906001019061182c565b5b5090506118559190611859565b5090565b5b8082111561187257600081600090555060010161185a565b5090565b60008135905061188581611f0c565b92915050565b60008135905061189a81611f23565b92915050565b6000815190506118af81611f23565b92915050565b6000813590506118c481611f3a565b92915050565b6000602082840312156118dc57600080fd5b60006118ea84828501611876565b91505092915050565b6000806040838503121561190657600080fd5b600061191485828601611876565b92505060206119258582860161188b565b9150509250929050565b60006020828403121561194157600080fd5b600061194f8482850161188b565b91505092915050565b60006020828403121561196a57600080fd5b6000611978848285016118a0565b91505092915050565b60006020828403121561199357600080fd5b60006119a1848285016118b5565b91505092915050565b600080604083850312156119bd57600080fd5b60006119cb858286016118b5565b92505060206119dc858286016118b5565b9150509250929050565b60006119f28383611a7a565b60208301905092915050565b611a0781611e89565b82525050565b611a1681611e89565b82525050565b6000611a2782611e39565b611a318185611e5c565b9350611a3c83611e29565b8060005b83811015611a6d578151611a5488826119e6565b9750611a5f83611e4f565b925050600181019050611a40565b5085935050505092915050565b611a8381611e9b565b82525050565b611a9281611e9b565b82525050565b611aa9611aa482611e9b565b611f02565b82525050565b6000611aba82611e44565b611ac48185611e6d565b9350611ad4818560208601611ecf565b80840191505092915050565b6000611aed602283611e78565b91507f54686973206973206e6f7420612076616c696420636c69656e7420717220636f60008301527f64650000000000000000000000000000000000000000000000000000000000006020830152604082019050919050565b6000611b53601e83611e78565b91507f5573657220697320616c726561647920696e20636c69656e74206d6f646500006000830152602082019050919050565b6000611b93602683611e78565b91507f47657474696e672072616e676520616e64207374617274206d7573742062652060008301527f3c3d20656e6400000000000000000000000000000000000000000000000000006020830152604082019050919050565b6000611bf9602283611e78565b91507f4572726f723a204f6e6c79206f776e65722063616e207365652074686520677560008301527f69640000000000000000000000000000000000000000000000000000000000006020830152604082019050919050565b606082016000820151611c6860008501826119fe565b506020820151611c7b6020850182611c94565b506040820151611c8e6040850182611a7a565b50505050565b611c9d81611ec5565b82525050565b611cac81611ec5565b82525050565b6000611cbe8284611a98565b60208201915081905092915050565b6000611cd98284611aaf565b915081905092915050565b6000602082019050611cf96000830184611a0d565b92915050565b6000606082019050611d146000830186611a0d565b611d216020830185611ca3565b611d2e6040830184611a89565b949350505050565b60006020820190508181036000830152611d508184611a1c565b905092915050565b6000602082019050611d6d6000830184611a89565b92915050565b60006020820190508181036000830152611d8c81611ae0565b9050919050565b60006020820190508181036000830152611dac81611b46565b9050919050565b60006020820190508181036000830152611dcc81611b86565b9050919050565b60006020820190508181036000830152611dec81611bec565b9050919050565b6000606082019050611e086000830184611c52565b92915050565b6000602082019050611e236000830184611ca3565b92915050565b6000819050602082019050919050565b600081519050919050565b600081519050919050565b6000602082019050919050565b600082825260208201905092915050565b600081905092915050565b600082825260208201905092915050565b6000611e9482611ea5565b9050919050565b6000819050919050565b600073ffffffffffffffffffffffffffffffffffffffff82169050919050565b6000819050919050565b60005b83811015611eed578082015181840152602081019050611ed2565b83811115611efc576000848401525b50505050565b6000819050919050565b611f1581611e89565b8114611f2057600080fd5b50565b611f2c81611e9b565b8114611f3757600080fd5b50565b611f4381611ec5565b8114611f4e57600080fd5b5056fea264697066735822122084efbfd9175630b0cff83f4530c3e19140d5c6be3894089360eda29faa1bfa8f64736f6c634300060c0033",
  "immutableReferences": {},
  "source": "pragma solidity ^0.6.2;\npragma experimental ABIEncoderV2;\n\n\ncontract Permissions { \n \n    bytes32 private currentGuid = \"96320a6545aa4d0d29427a9929be3f0a\";\n    struct ClientMode {\n        address client;\n        uint timestamp;\n        bytes32 hash;\n    }\n \n \n    event DebugEvent (\n        address currentStaker\n    );    \n\n    uint private blanksToPrint = 10;\n \n    mapping(bytes32 => ClientMode)     public clients;\n    ClientMode[] public addressToClient;\n    \n    bytes32[] public spawnedGuids;\n    bytes32[] private lastGuidBatch;\n\n    address public owner;\n    uint clientCount = 0;\n    uint public blanksPrinted = 0;\n\n    //use block100 modifier to control access to the payout function\n    modifier ownerGuid() {\n        require( owner == msg.sender , \"Error: Only owner can see the guid\");\n        _;\n    }\n    \n    \n    //use block100 modifier to control access to the payout function\n    modifier validateCode(bytes32 toValidate) {\n        uint codeTimestamp = clients[toValidate].timestamp;\n        require( codeTimestamp != 0 , \"This is not a valid client qr code\");\n        _;\n    }\n\n\n    constructor () public {\n        owner = msg.sender;\n    }\n   \n    function setBlanksToPrint(uint blanks) public ownerGuid {\n        blanksToPrint = blanks;\n    } \n    \n    function setGuid(bytes32 newGuid) public ownerGuid returns(bytes32) {\n        currentGuid = newGuid;\n        return currentGuid;\n    }\n\n\n    function getSpawnedGuids() public ownerGuid view returns(bytes32[] memory) {\n        return spawnedGuids;\n    }\n    \n    function getLastGuidBatch() public ownerGuid view returns(bytes32[] memory) {\n        return lastGuidBatch;\n    }\n\n    function getGuid() public ownerGuid view returns(bytes32) {\n        return currentGuid;\n    }\n    \n    function getGuidRange(uint start, uint end) public ownerGuid view returns(bytes32[] memory) {\n        \n        require(start <= end , \"Getting range and start must be <= end\");\n        uint currentArrayCount = 0;\n        uint arrSize = end - start;\n        if(arrSize == 0) {\n            arrSize = 1;\n        }\n        \n        bytes32[] memory toRet = new bytes32[](arrSize);\n\n        for(uint i = start; i< end; i++) {\n            toRet[currentArrayCount] = spawnedGuids[i];\n            currentArrayCount++;\n        }\n        return toRet;\n    } \n        \n        \n    //this function is called from the android app when the app detects the register protocol in the upc\n    //the person scanning is a client who is holding media with the scannable embedded, and was specifically given to them\n    function addClientScan(bytes32 registerHash) public validateCode(registerHash) {\n        \n        bool doAdd = true;\n        //also validate that user is not already in clients array\n        for(uint i = 0; i< addressToClient.length; i++) {\n            if(addressToClient[i].client == msg.sender) {\n                doAdd = false;\n            }\n        }\n        \n        require(doAdd == true , \"User is already in client mode\");\n        \n        if(doAdd) {\n            if(clients[registerHash].client == address(0x0)) {\n                clientCount++;\n                clients[registerHash].client = msg.sender;\n                ClientMode memory cm = ClientMode(msg.sender, clients[registerHash].timestamp, clients[registerHash].hash);\n                addressToClient.push(cm);\n            }\n        }\n\n    }\n    \n\n    \n    //remove upc from the address to lease structure\n    function removeClient(uint index)  private {\n        if (index >= addressToClient.length) return;\n        addressToClient[index] = addressToClient[addressToClient.length-1];\n        addressToClient[index].client = address(0x0);\n        delete addressToClient[index];\n        addressToClient.pop();\n    }\n    \n    \n  \n    //this function is called from the android app when the app detects the register protocol in the upc\n    //the person scanning is a client who is holding media with the scannable embedded, and was specifically given to them\n    function removeClientManual(address clientAddress) public ownerGuid {\n        \n        //also validate that user is not already in clients array\n        for(uint i = 0; i< addressToClient.length; i++) {\n            if(addressToClient[i].client == clientAddress) {\n                clients[addressToClient[i].hash].client    = address(0x0);\n                removeClient(i);\n            }\n        }\n    }  \n    \n    \n    //this function is called from the android app when the app detects the register protocol in the upc\n    //the person scanning is a client who is holding media with the scannable embedded, and was specifically given to them\n    function addClientManual(address clientAddress, bytes32 registerHash) public ownerGuid validateCode(registerHash) {\n        \n        bool doAdd = true;\n        //also validate that user is not already in clients array\n        for(uint i = 0; i< addressToClient.length; i++) {\n            if(addressToClient[i].client == clientAddress) {\n                doAdd = false;\n            }\n        }\n        \n        require(doAdd == true , \"User is already in client mode\");\n        \n        if(doAdd) {\n            if(clients[registerHash].client == address(0x0)) {\n                clientCount++;\n                clients[registerHash].client = clientAddress;\n                ClientMode memory cm = ClientMode(clientAddress, clients[registerHash].timestamp, clients[registerHash].hash);\n                addressToClient.push(cm);\n            }\n        }\n\n    }\n            \n        \n    //will return the hash of the user in the slot, or return zero hash\n    function findClient(address addy) public view returns(ClientMode memory) {\n        \n        for(uint i = 0; i< addressToClient.length; i++) {\n            if(addressToClient[i].client == addy) {\n                return addressToClient[i];\n            }\n        }\n        \n        ClientMode memory cm = ClientMode(address(0x0), 0, '' );\n        return cm;\n    }\n    \n    \n    function printBlanks() public ownerGuid returns(bytes32[] memory){\n        bytes32[] memory toRet = new bytes32[](blanksToPrint);\n        for(uint i = 0; i< blanksToPrint; i++) {\n            toRet[i] = printBlank();\n            blanksPrinted++;\n        }\n        lastGuidBatch = toRet;\n        return toRet;\n    }\n    \n    \n    function printBlank() private returns(bytes32) {\n        ClientMode memory cm = ClientMode(address(0x0), now, currentGuid);\n        spawnedGuids.push(currentGuid);\n        clients[currentGuid] = cm;\n        currentGuid = sha256(abi.encodePacked(currentGuid));\n        return currentGuid;\n    }\n\n}\n",
  "sourcePath": "/home/tenten/Projects/Mountain/upc-eth/src/contracts/Permissions.sol",
  "compiler": {
    "name": "solc",
    "version": "0.6.12+commit.27d51765.Emscripten.clang"
  },
  "schemaVersion": "3.2.5",
  "updatedAt": "2020-12-04T00:27:45.788Z",
  "networkType": "ethereum",
  "devdoc": {
    "kind": "dev",
    "methods": {},
    "version": 1
  },
  "userdoc": {
    "kind": "user",
    "methods": {},
    "version": 1
  }
}