{
  "contractName": "RewardGranter",
  "abi": [
    {
      "inputs": [],
      "stateMutability": "nonpayable",
      "type": "constructor"
    },
    {
      "anonymous": false,
      "inputs": [
        {
          "indexed": true,
          "internalType": "address",
          "name": "owner",
          "type": "address"
        },
        {
          "indexed": true,
          "internalType": "address",
          "name": "spender",
          "type": "address"
        },
        {
          "indexed": false,
          "internalType": "uint256",
          "name": "value",
          "type": "uint256"
        }
      ],
      "name": "Approval",
      "type": "event"
    },
    {
      "anonymous": false,
      "inputs": [
        {
          "indexed": false,
          "internalType": "address",
          "name": "currentStaker",
          "type": "address"
        },
        {
          "indexed": false,
          "internalType": "uint256",
          "name": "amountStaked",
          "type": "uint256"
        },
        {
          "indexed": false,
          "internalType": "bool",
          "name": "isOwned",
          "type": "bool"
        },
        {
          "indexed": false,
          "internalType": "uint256",
          "name": "lastRewardTimestamp",
          "type": "uint256"
        },
        {
          "indexed": false,
          "internalType": "uint256",
          "name": "stakingStartTimestamp",
          "type": "uint256"
        },
        {
          "indexed": false,
          "internalType": "uint256",
          "name": "rewards",
          "type": "uint256"
        },
        {
          "indexed": false,
          "internalType": "bytes32",
          "name": "upcHash",
          "type": "bytes32"
        }
      ],
      "name": "GrantRewardEvent",
      "type": "event"
    },
    {
      "anonymous": false,
      "inputs": [
        {
          "indexed": true,
          "internalType": "address",
          "name": "from",
          "type": "address"
        },
        {
          "indexed": true,
          "internalType": "address",
          "name": "to",
          "type": "address"
        },
        {
          "indexed": false,
          "internalType": "uint256",
          "name": "value",
          "type": "uint256"
        }
      ],
      "name": "Transfer",
      "type": "event"
    },
    {
      "inputs": [
        {
          "internalType": "address",
          "name": "owner",
          "type": "address"
        },
        {
          "internalType": "address",
          "name": "spender",
          "type": "address"
        }
      ],
      "name": "allowance",
      "outputs": [
        {
          "internalType": "uint256",
          "name": "",
          "type": "uint256"
        }
      ],
      "stateMutability": "view",
      "type": "function"
    },
    {
      "inputs": [
        {
          "internalType": "address",
          "name": "spender",
          "type": "address"
        },
        {
          "internalType": "uint256",
          "name": "amount",
          "type": "uint256"
        }
      ],
      "name": "approve",
      "outputs": [
        {
          "internalType": "bool",
          "name": "",
          "type": "bool"
        }
      ],
      "stateMutability": "nonpayable",
      "type": "function"
    },
    {
      "inputs": [
        {
          "internalType": "address",
          "name": "account",
          "type": "address"
        }
      ],
      "name": "balanceOf",
      "outputs": [
        {
          "internalType": "uint256",
          "name": "",
          "type": "uint256"
        }
      ],
      "stateMutability": "view",
      "type": "function"
    },
    {
      "inputs": [],
      "name": "decimals",
      "outputs": [
        {
          "internalType": "uint8",
          "name": "",
          "type": "uint8"
        }
      ],
      "stateMutability": "view",
      "type": "function"
    },
    {
      "inputs": [
        {
          "internalType": "address",
          "name": "spender",
          "type": "address"
        },
        {
          "internalType": "uint256",
          "name": "subtractedValue",
          "type": "uint256"
        }
      ],
      "name": "decreaseAllowance",
      "outputs": [
        {
          "internalType": "bool",
          "name": "",
          "type": "bool"
        }
      ],
      "stateMutability": "nonpayable",
      "type": "function"
    },
    {
      "inputs": [
        {
          "internalType": "address",
          "name": "spender",
          "type": "address"
        },
        {
          "internalType": "uint256",
          "name": "addedValue",
          "type": "uint256"
        }
      ],
      "name": "increaseAllowance",
      "outputs": [
        {
          "internalType": "bool",
          "name": "",
          "type": "bool"
        }
      ],
      "stateMutability": "nonpayable",
      "type": "function"
    },
    {
      "inputs": [],
      "name": "name",
      "outputs": [
        {
          "internalType": "string",
          "name": "",
          "type": "string"
        }
      ],
      "stateMutability": "view",
      "type": "function"
    },
    {
      "inputs": [],
      "name": "owner",
      "outputs": [
        {
          "internalType": "address",
          "name": "",
          "type": "address"
        }
      ],
      "stateMutability": "view",
      "type": "function"
    },
    {
      "inputs": [
        {
          "internalType": "bytes32",
          "name": "",
          "type": "bytes32"
        }
      ],
      "name": "payouts",
      "outputs": [
        {
          "internalType": "address",
          "name": "currentStaker",
          "type": "address"
        },
        {
          "internalType": "uint256",
          "name": "amountStaked",
          "type": "uint256"
        },
        {
          "internalType": "bool",
          "name": "isOwned",
          "type": "bool"
        },
        {
          "internalType": "uint256",
          "name": "lastRewardTimestamp",
          "type": "uint256"
        },
        {
          "internalType": "uint256",
          "name": "stakingStartTimestamp",
          "type": "uint256"
        },
        {
          "internalType": "uint256",
          "name": "rewards",
          "type": "uint256"
        },
        {
          "internalType": "string",
          "name": "word",
          "type": "string"
        }
      ],
      "stateMutability": "view",
      "type": "function"
    },
    {
      "inputs": [
        {
          "internalType": "uint256",
          "name": "",
          "type": "uint256"
        }
      ],
      "name": "rewardToScannable",
      "outputs": [
        {
          "internalType": "bytes32",
          "name": "",
          "type": "bytes32"
        }
      ],
      "stateMutability": "view",
      "type": "function"
    },
    {
      "inputs": [],
      "name": "symbol",
      "outputs": [
        {
          "internalType": "string",
          "name": "",
          "type": "string"
        }
      ],
      "stateMutability": "view",
      "type": "function"
    },
    {
      "inputs": [],
      "name": "testVal",
      "outputs": [
        {
          "internalType": "uint256",
          "name": "",
          "type": "uint256"
        }
      ],
      "stateMutability": "view",
      "type": "function"
    },
    {
      "inputs": [],
      "name": "totalSupply",
      "outputs": [
        {
          "internalType": "uint256",
          "name": "",
          "type": "uint256"
        }
      ],
      "stateMutability": "view",
      "type": "function"
    },
    {
      "inputs": [
        {
          "internalType": "address",
          "name": "recipient",
          "type": "address"
        },
        {
          "internalType": "uint256",
          "name": "amount",
          "type": "uint256"
        }
      ],
      "name": "transfer",
      "outputs": [
        {
          "internalType": "bool",
          "name": "",
          "type": "bool"
        }
      ],
      "stateMutability": "nonpayable",
      "type": "function"
    },
    {
      "inputs": [
        {
          "internalType": "address",
          "name": "sender",
          "type": "address"
        },
        {
          "internalType": "address",
          "name": "recipient",
          "type": "address"
        },
        {
          "internalType": "uint256",
          "name": "amount",
          "type": "uint256"
        }
      ],
      "name": "transferFrom",
      "outputs": [
        {
          "internalType": "bool",
          "name": "",
          "type": "bool"
        }
      ],
      "stateMutability": "nonpayable",
      "type": "function"
    },
    {
      "inputs": [],
      "name": "getOwnershipPeroid",
      "outputs": [
        {
          "internalType": "uint256",
          "name": "",
          "type": "uint256"
        }
      ],
      "stateMutability": "view",
      "type": "function"
    },
    {
      "inputs": [
        {
          "internalType": "uint256",
          "name": "duration",
          "type": "uint256"
        }
      ],
      "name": "setOwnershipPeroid",
      "outputs": [],
      "stateMutability": "nonpayable",
      "type": "function"
    },
    {
      "inputs": [],
      "name": "getRewardableScannables",
      "outputs": [
        {
          "internalType": "bytes32[]",
          "name": "",
          "type": "bytes32[]"
        }
      ],
      "stateMutability": "view",
      "type": "function"
    },
    {
      "inputs": [
        {
          "internalType": "address",
          "name": "address1",
          "type": "address"
        }
      ],
      "name": "setBank",
      "outputs": [
        {
          "internalType": "uint256",
          "name": "",
          "type": "uint256"
        }
      ],
      "stateMutability": "nonpayable",
      "type": "function"
    },
    {
      "inputs": [
        {
          "internalType": "bytes32",
          "name": "upcHash",
          "type": "bytes32"
        }
      ],
      "name": "isOwned",
      "outputs": [
        {
          "internalType": "bool",
          "name": "",
          "type": "bool"
        }
      ],
      "stateMutability": "view",
      "type": "function"
    },
    {
      "inputs": [
        {
          "internalType": "bytes32",
          "name": "upcHash",
          "type": "bytes32"
        }
      ],
      "name": "getOwner",
      "outputs": [
        {
          "internalType": "address",
          "name": "",
          "type": "address"
        }
      ],
      "stateMutability": "view",
      "type": "function"
    },
    {
      "inputs": [
        {
          "internalType": "bytes32",
          "name": "upcHash",
          "type": "bytes32"
        }
      ],
      "name": "getPayoutByHash",
      "outputs": [
        {
          "internalType": "address",
          "name": "currentStaker",
          "type": "address"
        },
        {
          "internalType": "uint256",
          "name": "totalBalance",
          "type": "uint256"
        },
        {
          "internalType": "string",
          "name": "upcId",
          "type": "string"
        },
        {
          "internalType": "bool",
          "name": "isOwned",
          "type": "bool"
        },
        {
          "internalType": "uint256",
          "name": "stakingStartTimestamp",
          "type": "uint256"
        },
        {
          "internalType": "uint256",
          "name": "rewards",
          "type": "uint256"
        }
      ],
      "stateMutability": "view",
      "type": "function"
    },
    {
      "inputs": [
        {
          "internalType": "bytes32",
          "name": "upcHash",
          "type": "bytes32"
        },
        {
          "internalType": "uint256",
          "name": "totalBalance",
          "type": "uint256"
        },
        {
          "internalType": "string",
          "name": "upcId",
          "type": "string"
        },
        {
          "internalType": "uint256",
          "name": "stakingStartTimestamp",
          "type": "uint256"
        },
        {
          "internalType": "address",
          "name": "currentStaker",
          "type": "address"
        }
      ],
      "name": "addRewardableScannable",
      "outputs": [],
      "stateMutability": "nonpayable",
      "type": "function"
    },
    {
      "inputs": [
        {
          "internalType": "bytes32",
          "name": "upcHash",
          "type": "bytes32"
        }
      ],
      "name": "removeRewardableScannable",
      "outputs": [],
      "stateMutability": "nonpayable",
      "type": "function"
    },
    {
      "inputs": [
        {
          "internalType": "bytes32",
          "name": "upcHash",
          "type": "bytes32"
        }
      ],
      "name": "cashOutRewards",
      "outputs": [],
      "stateMutability": "nonpayable",
      "type": "function"
    },
    {
      "inputs": [],
      "name": "grantRewards",
      "outputs": [
        {
          "internalType": "uint256",
          "name": "interestPaid",
          "type": "uint256"
        },
        {
          "internalType": "uint256",
          "name": "addressesPaid",
          "type": "uint256"
        }
      ],
      "stateMutability": "nonpayable",
      "type": "function"
    }
  ],
  "bytecode": "0x60806040526000600755610258600a556000600b60006101000a81548160ff0219169083151502179055503480156200003757600080fd5b506040518060400160405280600781526020017f555043476f6c64000000000000000000000000000000000000000000000000008152506040518060400160405280600481526020017f55504347000000000000000000000000000000000000000000000000000000008152508160039080519060200190620000bc92919062000389565b508060049080519060200190620000d592919062000389565b506012600560006101000a81548160ff021916908360ff160217905550505033600960006101000a81548173ffffffffffffffffffffffffffffffffffffffff021916908373ffffffffffffffffffffffffffffffffffffffff16021790555062000160336200014a6200016660201b60201c565b60ff16600a0a6103e8026200017d60201b60201c565b62000540565b6000600560009054906101000a900460ff16905090565b600073ffffffffffffffffffffffffffffffffffffffff168273ffffffffffffffffffffffffffffffffffffffff161415620001f0576040517f08c379a0000000000000000000000000000000000000000000000000000000008152600401620001e790620004e6565b60405180910390fd5b62000204600083836200032c60201b60201c565b62000220816002546200033160201b620014bf1790919060201c565b6002819055506200027e816000808573ffffffffffffffffffffffffffffffffffffffff1673ffffffffffffffffffffffffffffffffffffffff168152602001908152602001600020546200033160201b620014bf1790919060201c565b6000808473ffffffffffffffffffffffffffffffffffffffff1673ffffffffffffffffffffffffffffffffffffffff168152602001908152602001600020819055508173ffffffffffffffffffffffffffffffffffffffff16600073ffffffffffffffffffffffffffffffffffffffff167fddf252ad1be2c89b69c2b068fc378daa952ba7f163c4a11628f55a4df523b3ef8360405162000320919062000508565b60405180910390a35050565b505050565b6000808284019050838110156200037f576040517f08c379a00000000000000000000000000000000000000000000000000000000081526004016200037690620004c4565b60405180910390fd5b8091505092915050565b828054600181600116156101000203166002900490600052602060002090601f016020900481019282601f10620003cc57805160ff1916838001178555620003fd565b82800160010185558215620003fd579182015b82811115620003fc578251825591602001919060010190620003df565b5b5090506200040c919062000410565b5090565b5b808211156200042b57600081600090555060010162000411565b5090565b60006200043e601b8362000525565b91507f536166654d6174683a206164646974696f6e206f766572666c6f7700000000006000830152602082019050919050565b600062000480601f8362000525565b91507f45524332303a206d696e7420746f20746865207a65726f2061646472657373006000830152602082019050919050565b620004be8162000536565b82525050565b60006020820190508181036000830152620004df816200042f565b9050919050565b60006020820190508181036000830152620005018162000471565b9050919050565b60006020820190506200051f6000830184620004b3565b92915050565b600082825260208201905092915050565b6000819050919050565b61268180620005506000396000f3fe608060405234801561001057600080fd5b506004361061018e5760003560e01c806377001dd6116100de578063ace4d83011610097578063dd62ed3e11610071578063dd62ed3e146104f3578063deb931a214610523578063df85461f14610553578063fe54f4a41461056f5761018e565b8063ace4d8301461046f578063aeddb9051461049f578063b849a8bf146104d55761018e565b806377001dd6146103995780638da5cb5b146103b75780638da71903146103d557806395d89b41146103f1578063a457c2d71461040f578063a9059cbb1461043f5761018e565b806323b872dd1161014b578063395093511161012557806339509351146102fe578063463291be1461032e578063558cb7f71461034a57806370a08231146103695761018e565b806323b872dd1461027b578063313ce567146102ab57806334911bf0146102c95761018e565b806306fdde0314610193578063090d23b9146101b1578063095ea7b3146101e157806318160ddd1461021157806319d4715e1461022f5780631f33d35b1461024b575b600080fd5b61019b61058d565b6040516101a891906122b2565b60405180910390f35b6101cb60048036038101906101c69190611bc9565b61062f565b6040516101d891906123d4565b60405180910390f35b6101fb60048036038101906101f69190611c7d565b610692565b604051610208919061227c565b60405180910390f35b6102196106b0565b60405161022691906123d4565b60405180910390f35b61024960048036038101906102449190611cb9565b6106ba565b005b61026560048036038101906102609190611cb9565b6106bd565b604051610272919061227c565b60405180910390f35b61029560048036038101906102909190611c2e565b6106ea565b6040516102a2919061227c565b60405180910390f35b6102b36107c3565b6040516102c09190612418565b60405180910390f35b6102e360048036038101906102de9190611cb9565b6107da565b6040516102f5969594939291906121f2565b60405180910390f35b61031860048036038101906103139190611c7d565b610948565b604051610325919061227c565b60405180910390f35b61034860048036038101906103439190611d71565b6109fb565b005b610352610a95565b6040516103609291906123ef565b60405180910390f35b610383600480360381019061037e9190611bc9565b610d2f565b60405161039091906123d4565b60405180910390f35b6103a1610d77565b6040516103ae91906123d4565b60405180910390f35b6103bf610d7d565b6040516103cc9190612161565b60405180910390f35b6103ef60048036038101906103ea9190611ce2565b610da3565b005b6103f9610ed9565b60405161040691906122b2565b60405180910390f35b61042960048036038101906104249190611c7d565b610f7b565b604051610436919061227c565b60405180910390f35b61045960048036038101906104549190611c7d565b611048565b604051610466919061227c565b60405180910390f35b61048960048036038101906104849190611d71565b611066565b6040516104969190612297565b60405180910390f35b6104b960048036038101906104b49190611cb9565b611087565b6040516104cc979695949392919061217c565b60405180910390f35b6104dd61118e565b6040516104ea919061225a565b60405180910390f35b61050d60048036038101906105089190611bf2565b6111e6565b60405161051a91906123d4565b60405180910390f35b61053d60048036038101906105389190611cb9565b61126d565b60405161054a9190612161565b60405180910390f35b61056d60048036038101906105689190611cb9565b6112ad565b005b6105776114b5565b60405161058491906123d4565b60405180910390f35b606060038054600181600116156101000203166002900480601f0160208091040260200160405190810160405280929190818152602001828054600181600116156101000203166002900480156106255780601f106105fa57610100808354040283529160200191610625565b820191906000526020600020905b81548152906001019060200180831161060857829003601f168201915b5050505050905090565b600081600b60016101000a81548173ffffffffffffffffffffffffffffffffffffffff021916908373ffffffffffffffffffffffffffffffffffffffff1602179055506001600b60006101000a81548160ff021916908315150217905550919050565b60006106a661069f611514565b848461151c565b6001905092915050565b6000600254905090565b50565b60006008600083815260200190815260200160002060020160009054906101000a900460ff169050919050565b60006106f78484846116e7565b6107b884610703611514565b6107b3856040518060600160405280602881526020016125ff60289139600160008b73ffffffffffffffffffffffffffffffffffffffff1673ffffffffffffffffffffffffffffffffffffffff1681526020019081526020016000206000610769611514565b73ffffffffffffffffffffffffffffffffffffffff1673ffffffffffffffffffffffffffffffffffffffff1681526020019081526020016000205461197c9092919063ffffffff16565b61151c565b600190509392505050565b6000600560009054906101000a900460ff16905090565b600080606060008060006008600088815260200190815260200160002060000160009054906101000a900473ffffffffffffffffffffffffffffffffffffffff169550600860008881526020019081526020016000206001015494506008600088815260200190815260200160002060020160009054906101000a900460ff1692506008600088815260200190815260200160002060040154915060086000888152602001908152602001600020600501549050600860008881526020019081526020016000206006018054600181600116156101000203166002900480601f0160208091040260200160405190810160405280929190818152602001828054600181600116156101000203166002900480156109385780601f1061090d57610100808354040283529160200191610938565b820191906000526020600020905b81548152906001019060200180831161091b57829003601f168201915b5050505050935091939550919395565b60006109f1610955611514565b846109ec8560016000610966611514565b73ffffffffffffffffffffffffffffffffffffffff1673ffffffffffffffffffffffffffffffffffffffff16815260200190815260200160002060008973ffffffffffffffffffffffffffffffffffffffff1673ffffffffffffffffffffffffffffffffffffffff168152602001908152602001600020546114bf90919063ffffffff16565b61151c565b6001905092915050565b600960009054906101000a900473ffffffffffffffffffffffffffffffffffffffff1673ffffffffffffffffffffffffffffffffffffffff163373ffffffffffffffffffffffffffffffffffffffff1614610a8b576040517f08c379a0000000000000000000000000000000000000000000000000000000008152600401610a82906123b4565b60405180910390fd5b80600a8190555050565b600080600960009054906101000a900473ffffffffffffffffffffffffffffffffffffffff1673ffffffffffffffffffffffffffffffffffffffff163373ffffffffffffffffffffffffffffffffffffffff1614610b28576040517f08c379a0000000000000000000000000000000000000000000000000000000008152600401610b1f906122f4565b60405180910390fd5b60005b6001600680549050038111610d2a57600060068281548110610b4957fe5b9060005260206000200154905060008060606000806000610b69876107da565b9550955095509550955095506000600860008981526020019081526020016000206005015490506000610b9b876119d7565b905060008183019050610bac611a44565b89816000019073ffffffffffffffffffffffffffffffffffffffff16908173ffffffffffffffffffffffffffffffffffffffff168152505088816020018181525050600a54864203118015610c05575060001515871515145b15610c0f57600196505b8681604001901515908115158152505060004290508082606001818152505080826080018181525050828260a0018181525050888260c0018190525081600860008e815260200190815260200160002060008201518160000160006101000a81548173ffffffffffffffffffffffffffffffffffffffff021916908373ffffffffffffffffffffffffffffffffffffffff1602179055506020820151816001015560408201518160020160006101000a81548160ff021916908315150217905550606082015181600301556080820151816004015560a0820151816005015560c0820151816006019080519060200190610d0a929190611a99565b509050508c9d505050505050505050505050508080600101915050610b2b565b509091565b60008060008373ffffffffffffffffffffffffffffffffffffffff1673ffffffffffffffffffffffffffffffffffffffff168152602001908152602001600020549050919050565b60075481565b600960009054906101000a900473ffffffffffffffffffffffffffffffffffffffff1681565b60006001905060005b600680549050811015610dea5760068181548110610dc657fe5b9060005260206000200154871415610ddd57600091505b8080600101915050610dac565b508015610e1b5760068690806001815401808255809150506001900390600052602060002001600090919091909150555b816008600088815260200190815260200160002060000160006101000a81548173ffffffffffffffffffffffffffffffffffffffff021916908373ffffffffffffffffffffffffffffffffffffffff16021790555084600860008881526020019081526020016000206001018190555082600860008881526020019081526020016000206004018190555083600860008881526020019081526020016000206006019080519060200190610ed0929190611a99565b50505050505050565b606060048054600181600116156101000203166002900480601f016020809104026020016040519081016040528092919081815260200182805460018160011615610100020316600290048015610f715780601f10610f4657610100808354040283529160200191610f71565b820191906000526020600020905b815481529060010190602001808311610f5457829003601f168201915b5050505050905090565b600061103e610f88611514565b84611039856040518060600160405280602581526020016126276025913960016000610fb2611514565b73ffffffffffffffffffffffffffffffffffffffff1673ffffffffffffffffffffffffffffffffffffffff16815260200190815260200160002060008a73ffffffffffffffffffffffffffffffffffffffff1673ffffffffffffffffffffffffffffffffffffffff1681526020019081526020016000205461197c9092919063ffffffff16565b61151c565b6001905092915050565b600061105c611055611514565b84846116e7565b6001905092915050565b6006818154811061107357fe5b906000526020600020016000915090505481565b60086020528060005260406000206000915090508060000160009054906101000a900473ffffffffffffffffffffffffffffffffffffffff16908060010154908060020160009054906101000a900460ff1690806003015490806004015490806005015490806006018054600181600116156101000203166002900480601f0160208091040260200160405190810160405280929190818152602001828054600181600116156101000203166002900480156111845780601f1061115957610100808354040283529160200191611184565b820191906000526020600020905b81548152906001019060200180831161116757829003601f168201915b5050505050905087565b606060068054806020026020016040519081016040528092919081815260200182805480156111dc57602002820191906000526020600020905b8154815260200190600101908083116111c8575b5050505050905090565b6000600160008473ffffffffffffffffffffffffffffffffffffffff1673ffffffffffffffffffffffffffffffffffffffff16815260200190815260200160002060008373ffffffffffffffffffffffffffffffffffffffff1673ffffffffffffffffffffffffffffffffffffffff16815260200190815260200160002054905092915050565b60006008600083815260200190815260200160002060000160009054906101000a900473ffffffffffffffffffffffffffffffffffffffff169050919050565b60008080600090505b6006805490508110156112f757600681815481106112d057fe5b90600052602060002001548414156112ea57600192508091505b80806001019150506112b6565b5060006008600085815260200190815260200160002060000160006101000a81548173ffffffffffffffffffffffffffffffffffffffff021916908373ffffffffffffffffffffffffffffffffffffffff1602179055506000600860008581526020019081526020016000206001018190555060006008600085815260200190815260200160002060020160006101000a81548160ff02191690831515021790555060006008600085815260200190815260200160002060030181905550600060086000858152602001908152602001600020600501819055506040518060200160405280600081525060086000858152602001908152602001600020600601908051906020019061140a929190611a99565b5060008190505b600160068054905003811015611464576006600182018154811061143157fe5b90600052602060002001546006828154811061144957fe5b90600052602060002001819055508080600101915050611411565b5081156114b05760066001600680549050038154811061148057fe5b9060005260206000200160009055600680548061149957fe5b600190038181906000526020600020016000905590555b505050565b6000600a54905090565b60008082840190508381101561150a576040517f08c379a000000000000000000000000000000000000000000000000000000000815260040161150190612334565b60405180910390fd5b8091505092915050565b600033905090565b600073ffffffffffffffffffffffffffffffffffffffff168373ffffffffffffffffffffffffffffffffffffffff16141561158c576040517f08c379a000000000000000000000000000000000000000000000000000000000815260040161158390612394565b60405180910390fd5b600073ffffffffffffffffffffffffffffffffffffffff168273ffffffffffffffffffffffffffffffffffffffff1614156115fc576040517f08c379a00000000000000000000000000000000000000000000000000000000081526004016115f390612314565b60405180910390fd5b80600160008573ffffffffffffffffffffffffffffffffffffffff1673ffffffffffffffffffffffffffffffffffffffff16815260200190815260200160002060008473ffffffffffffffffffffffffffffffffffffffff1673ffffffffffffffffffffffffffffffffffffffff168152602001908152602001600020819055508173ffffffffffffffffffffffffffffffffffffffff168373ffffffffffffffffffffffffffffffffffffffff167f8c5be1e5ebec7d5bd14f71427d1e84f3dd0314c0f7b2291e5b200ac8c7c3b925836040516116da91906123d4565b60405180910390a3505050565b600073ffffffffffffffffffffffffffffffffffffffff168373ffffffffffffffffffffffffffffffffffffffff161415611757576040517f08c379a000000000000000000000000000000000000000000000000000000000815260040161174e90612374565b60405180910390fd5b600073ffffffffffffffffffffffffffffffffffffffff168273ffffffffffffffffffffffffffffffffffffffff1614156117c7576040517f08c379a00000000000000000000000000000000000000000000000000000000081526004016117be906122d4565b60405180910390fd5b6117d2838383611a3f565b61183d816040518060600160405280602681526020016125d9602691396000808773ffffffffffffffffffffffffffffffffffffffff1673ffffffffffffffffffffffffffffffffffffffff1681526020019081526020016000205461197c9092919063ffffffff16565b6000808573ffffffffffffffffffffffffffffffffffffffff1673ffffffffffffffffffffffffffffffffffffffff168152602001908152602001600020819055506118d0816000808573ffffffffffffffffffffffffffffffffffffffff1673ffffffffffffffffffffffffffffffffffffffff168152602001908152602001600020546114bf90919063ffffffff16565b6000808473ffffffffffffffffffffffffffffffffffffffff1673ffffffffffffffffffffffffffffffffffffffff168152602001908152602001600020819055508173ffffffffffffffffffffffffffffffffffffffff168373ffffffffffffffffffffffffffffffffffffffff167fddf252ad1be2c89b69c2b068fc378daa952ba7f163c4a11628f55a4df523b3ef8360405161196f91906123d4565b60405180910390a3505050565b60008383111582906119c4576040517f08c379a00000000000000000000000000000000000000000000000000000000081526004016119bb91906122b2565b60405180910390fd5b5060008385039050809150509392505050565b6000816127108084816119e657fe5b040214611a28576040517f08c379a0000000000000000000000000000000000000000000000000000000008152600401611a1f90612354565b60405180910390fd5b6127106102bc830281611a3757fe5b049050919050565b505050565b6040518060e00160405280600073ffffffffffffffffffffffffffffffffffffffff16815260200160008152602001600015158152602001600081526020016000815260200160008152602001606081525090565b828054600181600116156101000203166002900490600052602060002090601f016020900481019282601f10611ada57805160ff1916838001178555611b08565b82800160010185558215611b08579182015b82811115611b07578251825591602001919060010190611aec565b5b509050611b159190611b19565b5090565b5b80821115611b32576000816000905550600101611b1a565b5090565b600081359050611b4581612593565b92915050565b600081359050611b5a816125aa565b92915050565b600082601f830112611b7157600080fd5b8135611b84611b7f82612460565b612433565b91508082526020830160208301858383011115611ba057600080fd5b611bab838284612540565b50505092915050565b600081359050611bc3816125c1565b92915050565b600060208284031215611bdb57600080fd5b6000611be984828501611b36565b91505092915050565b60008060408385031215611c0557600080fd5b6000611c1385828601611b36565b9250506020611c2485828601611b36565b9150509250929050565b600080600060608486031215611c4357600080fd5b6000611c5186828701611b36565b9350506020611c6286828701611b36565b9250506040611c7386828701611bb4565b9150509250925092565b60008060408385031215611c9057600080fd5b6000611c9e85828601611b36565b9250506020611caf85828601611bb4565b9150509250929050565b600060208284031215611ccb57600080fd5b6000611cd984828501611b4b565b91505092915050565b600080600080600060a08688031215611cfa57600080fd5b6000611d0888828901611b4b565b9550506020611d1988828901611bb4565b945050604086013567ffffffffffffffff811115611d3657600080fd5b611d4288828901611b60565b9350506060611d5388828901611bb4565b9250506080611d6488828901611b36565b9150509295509295909350565b600060208284031215611d8357600080fd5b6000611d9184828501611bb4565b91505092915050565b6000611da68383611e2e565b60208301905092915050565b611dbb816124e1565b82525050565b6000611dcc8261249c565b611dd681856124bf565b9350611de18361248c565b8060005b83811015611e12578151611df98882611d9a565b9750611e04836124b2565b925050600181019050611de5565b5085935050505092915050565b611e28816124f3565b82525050565b611e37816124ff565b82525050565b611e46816124ff565b82525050565b6000611e57826124a7565b611e6181856124d0565b9350611e7181856020860161254f565b611e7a81612582565b840191505092915050565b6000611e926023836124d0565b91507f45524332303a207472616e7366657220746f20746865207a65726f206164647260008301527f65737300000000000000000000000000000000000000000000000000000000006020830152604082019050919050565b6000611ef8601d836124d0565b91507f556e617574686f72697a656420746f206772616e7420726577617264730000006000830152602082019050919050565b6000611f386022836124d0565b91507f45524332303a20617070726f766520746f20746865207a65726f20616464726560008301527f73730000000000000000000000000000000000000000000000000000000000006020830152604082019050919050565b6000611f9e601b836124d0565b91507f536166654d6174683a206164646974696f6e206f766572666c6f7700000000006000830152602082019050919050565b6000611fde6009836124d0565b91507f746f6f20736d616c6c00000000000000000000000000000000000000000000006000830152602082019050919050565b600061201e6025836124d0565b91507f45524332303a207472616e736665722066726f6d20746865207a65726f20616460008301527f64726573730000000000000000000000000000000000000000000000000000006020830152604082019050919050565b60006120846024836124d0565b91507f45524332303a20617070726f76652066726f6d20746865207a65726f2061646460008301527f72657373000000000000000000000000000000000000000000000000000000006020830152604082019050919050565b60006120ea6024836124d0565b91507f556e617574686f72697a656420746f20736574206f776e65727368697020706560008301527f72696f64000000000000000000000000000000000000000000000000000000006020830152604082019050919050565b61214c81612529565b82525050565b61215b81612533565b82525050565b60006020820190506121766000830184611db2565b92915050565b600060e082019050612191600083018a611db2565b61219e6020830189612143565b6121ab6040830188611e1f565b6121b86060830187612143565b6121c56080830186612143565b6121d260a0830185612143565b81810360c08301526121e48184611e4c565b905098975050505050505050565b600060c0820190506122076000830189611db2565b6122146020830188612143565b81810360408301526122268187611e4c565b90506122356060830186611e1f565b6122426080830185612143565b61224f60a0830184612143565b979650505050505050565b600060208201905081810360008301526122748184611dc1565b905092915050565b60006020820190506122916000830184611e1f565b92915050565b60006020820190506122ac6000830184611e3d565b92915050565b600060208201905081810360008301526122cc8184611e4c565b905092915050565b600060208201905081810360008301526122ed81611e85565b9050919050565b6000602082019050818103600083015261230d81611eeb565b9050919050565b6000602082019050818103600083015261232d81611f2b565b9050919050565b6000602082019050818103600083015261234d81611f91565b9050919050565b6000602082019050818103600083015261236d81611fd1565b9050919050565b6000602082019050818103600083015261238d81612011565b9050919050565b600060208201905081810360008301526123ad81612077565b9050919050565b600060208201905081810360008301526123cd816120dd565b9050919050565b60006020820190506123e96000830184612143565b92915050565b60006040820190506124046000830185612143565b6124116020830184612143565b9392505050565b600060208201905061242d6000830184612152565b92915050565b6000604051905081810181811067ffffffffffffffff8211171561245657600080fd5b8060405250919050565b600067ffffffffffffffff82111561247757600080fd5b601f19601f8301169050602081019050919050565b6000819050602082019050919050565b600081519050919050565b600081519050919050565b6000602082019050919050565b600082825260208201905092915050565b600082825260208201905092915050565b60006124ec82612509565b9050919050565b60008115159050919050565b6000819050919050565b600073ffffffffffffffffffffffffffffffffffffffff82169050919050565b6000819050919050565b600060ff82169050919050565b82818337600083830152505050565b60005b8381101561256d578082015181840152602081019050612552565b8381111561257c576000848401525b50505050565b6000601f19601f8301169050919050565b61259c816124e1565b81146125a757600080fd5b50565b6125b3816124ff565b81146125be57600080fd5b50565b6125ca81612529565b81146125d557600080fd5b5056fe45524332303a207472616e7366657220616d6f756e7420657863656564732062616c616e636545524332303a207472616e7366657220616d6f756e74206578636565647320616c6c6f77616e636545524332303a2064656372656173656420616c6c6f77616e63652062656c6f77207a65726fa26469706673582212207633806365f34c89b7ddb719057bf029e454a9e5d59efc2a9d4ebbc5909b57ad64736f6c634300060c0033",
  "immutableReferences": {},
  "source": "//pragma solidity ^0.5.16;\npragma experimental ABIEncoderV2;\npragma solidity ^0.6.2;\nimport \"./ERC20.sol\";\nimport \"./UPCGoldBank.sol\";\n\ncontract RewardGranter is ERC20 {\n\n    //will not remove items from this array.  the rewarding class will loop through and will reward only scannables that have a staker\n    bytes32[] public rewardToScannable;  //the scannables that will recieve the reward for staking\n    uint public testVal = 0;\n    mapping(bytes32 => PayoutMeta)     public payouts;\n    address public owner;\n\n\n    //uint public ownershipWaitingPeriod = 86400;\n    uint private ownershipWaitingPeriod = 600;\n\n\n    //the bank setter can only be called once\n    bool bankPresent = false;\n    UPCGoldBank bank;    \n    \n\n    struct PayoutMeta {\n        address currentStaker;\n        uint amountStaked;\n        bool isOwned;\n        uint lastRewardTimestamp;\n        uint stakingStartTimestamp;\n        uint rewards;\n        string  word;\n    }\n\n\n    event GrantRewardEvent (\n        address currentStaker,\n        uint amountStaked,\n        bool isOwned,\n        uint lastRewardTimestamp,\n        uint stakingStartTimestamp,\n        uint rewards,\n        bytes32 upcHash\n    );    \n\n    \n    constructor () public ERC20(\"UPCGold\", \"UPCG\") {\n        owner = msg.sender;\n        _mint(msg.sender, 1000 * (10 ** uint256(decimals())));\n    }\n    \n    function getOwnershipPeroid() public view returns (uint) {\n        return ownershipWaitingPeriod;\n    }\n    \n    function setOwnershipPeroid(uint duration) public {\n        require(msg.sender == owner , 'Unauthorized to set ownership period');\n        ownershipWaitingPeriod = duration;\n    }\n    \n    function calculateInterest(uint amount) private pure returns (uint) {\n        require((amount / 10000) * 10000 == amount , 'too small');\n        return amount * 700 / 10000;  //7%\n    }    \n    \n\n    //TODO: access control for this function\n    //returns the array of scannables that are elgible for a reward\n    function getRewardableScannables() public view returns(bytes32[] memory ) {\n        return rewardToScannable;\n    }\n \n    //function can be called once\n    function setBank(address address1) public returns (uint) {\n        bank = UPCGoldBank(address1);\n        bankPresent = true;\n    }\n    \n \n     function isOwned(bytes32 upcHash) public view returns (bool) {\n         return payouts[upcHash].isOwned;\n    }\n    \n    \n    function getOwner(bytes32 upcHash) public view returns (address) {\n         return payouts[upcHash].currentStaker;\n    }\n \n \n     \n    function getPayoutByHash(bytes32 upcHash) public view returns (address currentStaker, uint totalBalance, string memory upcId, bool isOwned, uint stakingStartTimestamp, uint rewards) {\n        currentStaker = payouts[upcHash].currentStaker;\n        totalBalance = payouts[upcHash].amountStaked;\n        isOwned = payouts[upcHash].isOwned;\n        //lastRewardTimestamp = payouts[upcHash].lastRewardTimestamp;\n        stakingStartTimestamp = payouts[upcHash].stakingStartTimestamp;\n        rewards =  payouts[upcHash].rewards;\n        upcId = payouts[upcHash].word;\n    }\n \n \n \n \n \n         //pass the upcHash, total balance, word, starttimestamp, user\n        //rewardGranter.addRewardableScannable(upcHash, balanceReceived[msg.sender].totalBalance, upcId, lm.stakingStartTimestamp, msg.sender);\n\n\n    function addRewardableScannable(bytes32 upcHash, uint totalBalance, string memory upcId, uint stakingStartTimestamp, address currentStaker) public {\n        bool doAdd = true;\n        for(uint i=0; i<rewardToScannable.length; i++) {\n            if(upcHash == rewardToScannable[i]) {\n                doAdd=false;\n            }\n        }\n        if(doAdd) {\n            rewardToScannable.push(upcHash);\n        }\n        payouts[upcHash].currentStaker = currentStaker;\n        payouts[upcHash].amountStaked = totalBalance;\n        payouts[upcHash].stakingStartTimestamp = stakingStartTimestamp;\n        payouts[upcHash].word = upcId;\n    }\n    \n    \n    //remove upc from the address to lease structure\n    function removeRewardableScannable(bytes32 upcHash)  public {\n        \n        bool doRemove = false;\n        uint removeIndex;\n        for(uint i=0; i<rewardToScannable.length; i++) {\n            if(upcHash == rewardToScannable[i]) {\n                doRemove=true;\n                removeIndex = i;\n            }\n        }\n        \n        payouts[upcHash].currentStaker = address(0x0);\n        payouts[upcHash].amountStaked = 0;\n        payouts[upcHash].isOwned = false;\n        payouts[upcHash].lastRewardTimestamp = 0;\n        payouts[upcHash].rewards = 0;\n        payouts[upcHash].word = \"\";\n\n\n\n        for (uint i = removeIndex; i<rewardToScannable.length-1; i++){\n            rewardToScannable[i] = rewardToScannable[i+1];\n        }\n        \n        if(doRemove) {\n            delete rewardToScannable[rewardToScannable.length-1];\n            rewardToScannable.pop();   \n        }\n\n    }\n\n\n \n \n    function cashOutRewards(bytes32 upcHash) public {\n        /*\n        (address currentStaker, uint amountStaked, bool isOwned, , , ,string memory word) = bank.getScannable(upcHash);\n        \n        require( currentStaker == msg.sender, 'Must own scannable code before cashing out rewards.');\n        require( isOwned == true, 'Must own scannable code before cashing out rewards.');\n\n        address payable _to = msg.sender;\n        uint payoutAmount = payouts[upcHash].rewards;\n        \n        //reset the rewards\n        payouts[upcHash].rewards = 0;\n        \n        _mint(_to, payoutAmount);\n        */\n    }\n   \n\n\n    function grantRewards() public returns(uint interestPaid, uint addressesPaid) {\n        require(msg.sender == owner , 'Unauthorized to grant rewards');\n\n        for (uint i = 0; i<=rewardToScannable.length-1; i++) {\n            bytes32 upcHash = rewardToScannable[i];\n            (address currentStaker, uint amountStaked, string memory word, bool isOwned, uint stakingStartTimestamp, uint rewards) = getPayoutByHash(upcHash);\n            uint currentReward = payouts[upcHash].rewards;\n            uint cycleInterestPayment = calculateInterest(amountStaked);\n            uint newInterestAmount = currentReward + cycleInterestPayment;\n\n            PayoutMeta memory pm;\n            \n            pm.currentStaker = currentStaker;\n            pm.amountStaked = amountStaked;\n            \n            \n            if( (now - stakingStartTimestamp > ownershipWaitingPeriod) && (isOwned==false)) {\n                isOwned = true;\n            }\n            \n            pm.isOwned = isOwned;\n            uint currentTimestamp = now;\n            pm.lastRewardTimestamp = currentTimestamp;\n            pm.stakingStartTimestamp = currentTimestamp;\n            pm.rewards = newInterestAmount;\n            pm.word = word;\n\n            payouts[upcHash] = pm;\n            //emit GrantRewardEvent(currentStaker, amountStaked, isOwned, currentTimestamp, currentTimestamp, newInterestAmount, upcHash);\n            //interestPaid += newInterestAmount;\n            addressesPaid = i;\n        }\n    }   \n\n}\n",
  "sourcePath": "/home/tenten/Projects/Mountain/upc-eth/src/contracts/RewardGranter.sol",
  "compiler": {
    "name": "solc",
    "version": "0.6.12+commit.27d51765.Emscripten.clang"
  },
  "schemaVersion": "3.2.5",
  "updatedAt": "2020-12-04T00:27:45.741Z",
  "networkType": "ethereum",
  "devdoc": {
    "kind": "dev",
    "methods": {
      "allowance(address,address)": {
        "details": "See {IERC20-allowance}."
      },
      "approve(address,uint256)": {
        "details": "See {IERC20-approve}. Requirements: - `spender` cannot be the zero address."
      },
      "balanceOf(address)": {
        "details": "See {IERC20-balanceOf}."
      },
      "decimals()": {
        "details": "Returns the number of decimals used to get its user representation. For example, if `decimals` equals `2`, a balance of `505` tokens should be displayed to a user as `5,05` (`505 / 10 ** 2`). Tokens usually opt for a value of 18, imitating the relationship between Ether and Wei. This is the value {ERC20} uses, unless {_setupDecimals} is called. NOTE: This information is only used for _display_ purposes: it in no way affects any of the arithmetic of the contract, including {IERC20-balanceOf} and {IERC20-transfer}."
      },
      "decreaseAllowance(address,uint256)": {
        "details": "Atomically decreases the allowance granted to `spender` by the caller. This is an alternative to {approve} that can be used as a mitigation for problems described in {IERC20-approve}. Emits an {Approval} event indicating the updated allowance. Requirements: - `spender` cannot be the zero address. - `spender` must have allowance for the caller of at least `subtractedValue`."
      },
      "increaseAllowance(address,uint256)": {
        "details": "Atomically increases the allowance granted to `spender` by the caller. This is an alternative to {approve} that can be used as a mitigation for problems described in {IERC20-approve}. Emits an {Approval} event indicating the updated allowance. Requirements: - `spender` cannot be the zero address."
      },
      "name()": {
        "details": "Returns the name of the token."
      },
      "symbol()": {
        "details": "Returns the symbol of the token, usually a shorter version of the name."
      },
      "totalSupply()": {
        "details": "See {IERC20-totalSupply}."
      },
      "transfer(address,uint256)": {
        "details": "See {IERC20-transfer}. Requirements: - `recipient` cannot be the zero address. - the caller must have a balance of at least `amount`."
      },
      "transferFrom(address,address,uint256)": {
        "details": "See {IERC20-transferFrom}. Emits an {Approval} event indicating the updated allowance. This is not required by the EIP. See the note at the beginning of {ERC20}. Requirements: - `sender` and `recipient` cannot be the zero address. - `sender` must have a balance of at least `amount`. - the caller must have allowance for ``sender``'s tokens of at least `amount`."
      }
    },
    "version": 1
  },
  "userdoc": {
    "kind": "user",
    "methods": {},
    "version": 1
  }
}