{
  "contractName": "UPCGoldBank",
  "abi": [
    {
      "inputs": [],
      "name": "actionPot",
      "outputs": [
        {
          "internalType": "uint256",
          "name": "",
          "type": "uint256"
        }
      ],
      "stateMutability": "view",
      "type": "function"
    },
    {
      "inputs": [
        {
          "internalType": "address",
          "name": "",
          "type": "address"
        },
        {
          "internalType": "uint256",
          "name": "",
          "type": "uint256"
        }
      ],
      "name": "addressToLease",
      "outputs": [
        {
          "internalType": "address",
          "name": "staker",
          "type": "address"
        },
        {
          "internalType": "uint256",
          "name": "amountStaked",
          "type": "uint256"
        },
        {
          "internalType": "bool",
          "name": "isOwned",
          "type": "bool"
        },
        {
          "internalType": "uint256",
          "name": "interestGained",
          "type": "uint256"
        },
        {
          "internalType": "uint256",
          "name": "stakingStartTimestamp",
          "type": "uint256"
        },
        {
          "internalType": "uint256",
          "name": "lastRewardTimestamp",
          "type": "uint256"
        },
        {
          "internalType": "bytes32",
          "name": "upcHash",
          "type": "bytes32"
        },
        {
          "internalType": "string",
          "name": "word",
          "type": "string"
        }
      ],
      "stateMutability": "view",
      "type": "function"
    },
    {
      "inputs": [
        {
          "internalType": "address",
          "name": "",
          "type": "address"
        }
      ],
      "name": "balanceReceived",
      "outputs": [
        {
          "internalType": "uint256",
          "name": "totalBalance",
          "type": "uint256"
        },
        {
          "internalType": "uint256",
          "name": "numPayments",
          "type": "uint256"
        }
      ],
      "stateMutability": "view",
      "type": "function"
    },
    {
      "inputs": [
        {
          "internalType": "bytes32",
          "name": "",
          "type": "bytes32"
        }
      ],
      "name": "scannables",
      "outputs": [
        {
          "internalType": "address",
          "name": "staker",
          "type": "address"
        },
        {
          "internalType": "uint256",
          "name": "amountStaked",
          "type": "uint256"
        },
        {
          "internalType": "bool",
          "name": "isOwned",
          "type": "bool"
        },
        {
          "internalType": "uint256",
          "name": "interestGained",
          "type": "uint256"
        },
        {
          "internalType": "uint256",
          "name": "stakingStartTimestamp",
          "type": "uint256"
        },
        {
          "internalType": "uint256",
          "name": "lastRewardTimestamp",
          "type": "uint256"
        },
        {
          "internalType": "bytes32",
          "name": "upcHash",
          "type": "bytes32"
        },
        {
          "internalType": "string",
          "name": "word",
          "type": "string"
        }
      ],
      "stateMutability": "view",
      "type": "function"
    },
    {
      "inputs": [
        {
          "internalType": "bytes32",
          "name": "upcHash",
          "type": "bytes32"
        }
      ],
      "name": "getScannable",
      "outputs": [
        {
          "internalType": "address",
          "name": "currentStaker",
          "type": "address"
        },
        {
          "internalType": "uint256",
          "name": "amountStaked",
          "type": "uint256"
        },
        {
          "internalType": "bool",
          "name": "isOwned",
          "type": "bool"
        },
        {
          "internalType": "uint256",
          "name": "rewards",
          "type": "uint256"
        },
        {
          "internalType": "uint256",
          "name": "stakingStartTimestamp",
          "type": "uint256"
        },
        {
          "internalType": "string",
          "name": "word",
          "type": "string"
        }
      ],
      "stateMutability": "view",
      "type": "function"
    },
    {
      "inputs": [
        {
          "internalType": "address",
          "name": "addy",
          "type": "address"
        }
      ],
      "name": "setRewardGranter",
      "outputs": [],
      "stateMutability": "nonpayable",
      "type": "function"
    },
    {
      "inputs": [
        {
          "internalType": "uint256",
          "name": "amount",
          "type": "uint256"
        }
      ],
      "name": "harvestRewardForScannable",
      "outputs": [
        {
          "internalType": "uint256",
          "name": "",
          "type": "uint256"
        }
      ],
      "stateMutability": "pure",
      "type": "function"
    },
    {
      "inputs": [
        {
          "internalType": "address",
          "name": "_to",
          "type": "address"
        },
        {
          "internalType": "uint256",
          "name": "_amount",
          "type": "uint256"
        }
      ],
      "name": "internalTransfer",
      "outputs": [],
      "stateMutability": "nonpayable",
      "type": "function"
    },
    {
      "inputs": [],
      "name": "getBalance",
      "outputs": [
        {
          "internalType": "uint256",
          "name": "",
          "type": "uint256"
        }
      ],
      "stateMutability": "view",
      "type": "function"
    },
    {
      "inputs": [],
      "name": "getAddressBalance",
      "outputs": [
        {
          "internalType": "uint256",
          "name": "",
          "type": "uint256"
        }
      ],
      "stateMutability": "view",
      "type": "function"
    },
    {
      "inputs": [],
      "name": "getMyScannables",
      "outputs": [
        {
          "internalType": "bytes32[]",
          "name": "",
          "type": "bytes32[]"
        }
      ],
      "stateMutability": "view",
      "type": "function"
    },
    {
      "inputs": [
        {
          "internalType": "string",
          "name": "upcId",
          "type": "string"
        }
      ],
      "name": "getCostToEvict",
      "outputs": [
        {
          "internalType": "address",
          "name": "currentStaker",
          "type": "address"
        },
        {
          "internalType": "uint256",
          "name": "currentAmountStaked",
          "type": "uint256"
        },
        {
          "internalType": "bool",
          "name": "currentIsOwned",
          "type": "bool"
        },
        {
          "internalType": "bytes32",
          "name": "upcHash",
          "type": "bytes32"
        }
      ],
      "stateMutability": "view",
      "type": "function"
    },
    {
      "inputs": [
        {
          "internalType": "string",
          "name": "upcId",
          "type": "string"
        }
      ],
      "name": "depositMoney",
      "outputs": [],
      "stateMutability": "payable",
      "type": "function"
    },
    {
      "inputs": [
        {
          "internalType": "uint256",
          "name": "amount",
          "type": "uint256"
        }
      ],
      "name": "calculateFee",
      "outputs": [
        {
          "internalType": "uint256",
          "name": "",
          "type": "uint256"
        }
      ],
      "stateMutability": "pure",
      "type": "function"
    },
    {
      "inputs": [
        {
          "internalType": "string",
          "name": "upcId",
          "type": "string"
        }
      ],
      "name": "withdraw",
      "outputs": [],
      "stateMutability": "nonpayable",
      "type": "function"
    }
  ],
  "bytecode": "0x60806040526000600460146101000a81548160ff02191690831515021790555034801561002b57600080fd5b50612f208061003b6000396000f3fe6080604052600436106100e85760003560e01c806375eb2ad11161008a578063a1eed17f11610059578063a1eed17f14610308578063d18a42e114610345578063d8f814f214610383578063f32aa1f8146103c7576100e8565b806375eb2ad11461021a5780638ea7842e1461024557806399a5d747146102895780639a63db94146102c6576100e8565b80632b8f7a49116100c65780632b8f7a491461018357806331fb67c21461019f5780633e7ba166146101c857806357525fc1146101f1576100e8565b806312065fe0146100ed578063154fd1b81461011857806315c59fcc14610158575b600080fd5b3480156100f957600080fd5b506101026103f2565b60405161010f9190612ca0565b60405180910390f35b34801561012457600080fd5b5061013f600480360381019061013a9190612633565b610411565b60405161014f9493929190612a37565b60405180910390f35b34801561016457600080fd5b5061016d610507565b60405161017a9190612ca0565b60405180910390f35b61019d60048036038101906101989190612633565b61050d565b005b3480156101ab57600080fd5b506101c660048036038101906101c19190612633565b610f29565b005b3480156101d457600080fd5b506101ef60048036038101906101ea91906124db565b6113e5565b005b3480156101fd57600080fd5b5061021860048036038101906102139190612489565b61150e565b005b34801561022657600080fd5b5061022f611552565b60405161023c9190612ca0565b60405180910390f35b34801561025157600080fd5b5061026c600480360381019061026791906124db565b61159c565b604051610280989796959493929190612ae4565b60405180910390f35b34801561029557600080fd5b506102b060048036038101906102ab9190612674565b6116c3565b6040516102bd9190612ca0565b60405180910390f35b3480156102d257600080fd5b506102ed60048036038101906102e891906125e1565b61172a565b6040516102ff96959493929190612a7c565b60405180910390f35b34801561031457600080fd5b5061032f600480360381019061032a9190612674565b61181b565b60405161033c9190612ca0565b60405180910390f35b34801561035157600080fd5b5061036c60048036038101906103679190612489565b611882565b60405161037a929190612cbb565b60405180910390f35b34801561038f57600080fd5b506103aa60048036038101906103a591906125e1565b6118a6565b6040516103be989796959493929190612ae4565b60405180910390f35b3480156103d357600080fd5b506103dc6119b3565b6040516103e99190612b69565b60405180910390f35b60003073ffffffffffffffffffffffffffffffffffffffff1631905090565b60008060008060028560405160200161042a9190612a20565b6040516020818303038152906040526040516104469190612a09565b602060405180830381855afa158015610463573d6000803e3d6000fd5b5050506040513d601f19601f82011682018060405250810190610486919061260a565b90506002600082815260200190815260200160002060000160009054906101000a900473ffffffffffffffffffffffffffffffffffffffff169350600260008281526020019081526020016000206001015492506002600082815260200190815260200160002060020160009054906101000a900460ff1691509193509193565b60035481565b60006002826040516020016105229190612a20565b60405160208183030381529060405260405161053e9190612a09565b602060405180830381855afa15801561055b573d6000803e3d6000fd5b5050506040513d601f19601f8201168201806040525081019061057e919061260a565b905060003073ffffffffffffffffffffffffffffffffffffffff166399a5d747346040518263ffffffff1660e01b81526004016105bb9190612ca0565b60206040518083038186803b1580156105d357600080fd5b505afa1580156105e7573d6000803e3d6000fd5b505050506040513d601f19601f8201168201806040525081019061060b919061269d565b9050600081340390506000600460009054906101000a900473ffffffffffffffffffffffffffffffffffffffff1673ffffffffffffffffffffffffffffffffffffffff16631f33d35b856040518263ffffffff1660e01b81526004016106719190612b8b565b60206040518083038186803b15801561068957600080fd5b505afa15801561069d573d6000803e3d6000fd5b505050506040513d601f19601f820116820180604052508101906106c191906125b8565b90506000811561077957600460009054906101000a900473ffffffffffffffffffffffffffffffffffffffff1673ffffffffffffffffffffffffffffffffffffffff1663deb931a2866040518263ffffffff1660e01b81526004016107269190612b8b565b60206040518083038186803b15801561073e57600080fd5b505afa158015610752573d6000803e3d6000fd5b505050506040513d601f19601f8201168201806040525081019061077691906124b2565b90505b81156107ee573373ffffffffffffffffffffffffffffffffffffffff168173ffffffffffffffffffffffffffffffffffffffff16146107ed576040517f08c379a00000000000000000000000000000000000000000000000000000000081526004016107e490612c60565b60405180910390fd5b5b60006002600087815260200190815260200160002060010154905060006002600088815260200190815260200160002060000160009054906101000a900473ffffffffffffffffffffffffffffffffffffffff1673ffffffffffffffffffffffffffffffffffffffff163373ffffffffffffffffffffffffffffffffffffffff16146108bb578185116108b6576040517f08c379a00000000000000000000000000000000000000000000000000000000081526004016108ad90612c00565b60405180910390fd5b6108c0565b600190505b6002600088815260200190815260200160002060000160009054906101000a900473ffffffffffffffffffffffffffffffffffffffff1673ffffffffffffffffffffffffffffffffffffffff163373ffffffffffffffffffffffffffffffffffffffff161461095157600061093488611b14565b905060026000898152602001908152602001600020600101549250505b610959612168565b33816000019073ffffffffffffffffffffffffffffffffffffffff16908173ffffffffffffffffffffffffffffffffffffffff1681525050858301816020018181525050816109b85760008160400190151590811515815250506109ca565b60018160400190151590811515815250505b42816080018181525050878160c0018181525050888160e0018190525080600260008a815260200190815260200160002060008201518160000160006101000a81548173ffffffffffffffffffffffffffffffffffffffff021916908373ffffffffffffffffffffffffffffffffffffffff1602179055506020820151816001015560408201518160020160006101000a81548160ff021916908315150217905550606082015181600301556080820151816004015560a0820151816005015560c0820151816006015560e0820151816007019080519060200190610ab09291906121c8565b5090505060006001905060005b6000803373ffffffffffffffffffffffffffffffffffffffff1673ffffffffffffffffffffffffffffffffffffffff16815260200190815260200160002080549050811015610b7a57896000803373ffffffffffffffffffffffffffffffffffffffff1673ffffffffffffffffffffffffffffffffffffffff1681526020019081526020016000208281548110610b5057fe5b9060005260206000209060080201600601541415610b6d57600091505b8080600101915050610abd565b508015610ca2576000803373ffffffffffffffffffffffffffffffffffffffff1673ffffffffffffffffffffffffffffffffffffffff16815260200190815260200160002082908060018154018082558091505060019003906000526020600020906008020160009091909190915060008201518160000160006101000a81548173ffffffffffffffffffffffffffffffffffffffff021916908373ffffffffffffffffffffffffffffffffffffffff1602179055506020820151816001015560408201518160020160006101000a81548160ff021916908315150217905550606082015181600301556080820151816004015560a0820151816005015560c0820151816006015560e0820151816007019080519060200190610c9e9291906121c8565b5050505b86600160003373ffffffffffffffffffffffffffffffffffffffff1673ffffffffffffffffffffffffffffffffffffffff16815260200190815260200160002060000160008282540192505081905550610cfa612248565b604051806040016040528089815260200142815250905080600160003373ffffffffffffffffffffffffffffffffffffffff1673ffffffffffffffffffffffffffffffffffffffff1681526020019081526020016000206002016000600160003373ffffffffffffffffffffffffffffffffffffffff1673ffffffffffffffffffffffffffffffffffffffff1681526020019081526020016000206001015481526020019081526020016000206000820151816000015560208201518160010155905050600160003373ffffffffffffffffffffffffffffffffffffffff1673ffffffffffffffffffffffffffffffffffffffff16815260200190815260200160002060010160008154809291906001019190505550600460009054906101000a900473ffffffffffffffffffffffffffffffffffffffff1673ffffffffffffffffffffffffffffffffffffffff16638da719038b8a88018e8760800151336040518663ffffffff1660e01b8152600401610e79959493929190612ba6565b600060405180830381600087803b158015610e9357600080fd5b505af1158015610ea7573d6000803e3d6000fd5b5050505060007322f23f59a19a5eed1ee9c546f64cc645b92a426390508073ffffffffffffffffffffffffffffffffffffffff166108fc8b9081150290604051600060405180830381858888f19350505050158015610f0a573d6000803e3d6000fd5b5089600360008282540192505081905550505050505050505050505050565b6000600282604051602001610f3e9190612a20565b604051602081830303815290604052604051610f5a9190612a09565b602060405180830381855afa158015610f77573d6000803e3d6000fd5b5050506040513d601f19601f82011682018060405250810190610f9a919061260a565b90506002600082815260200190815260200160002060000160009054906101000a900473ffffffffffffffffffffffffffffffffffffffff1673ffffffffffffffffffffffffffffffffffffffff163373ffffffffffffffffffffffffffffffffffffffff1614611040576040517f08c379a000000000000000000000000000000000000000000000000000000000815260040161103790612c40565b60405180910390fd5b60003073ffffffffffffffffffffffffffffffffffffffff166399a5d74760026000858152602001908152602001600020600101546040518263ffffffff1660e01b81526004016110919190612ca0565b60206040518083038186803b1580156110a957600080fd5b505afa1580156110bd573d6000803e3d6000fd5b505050506040513d601f19601f820116820180604052508101906110e1919061269d565b9050600081600260008581526020019081526020016000206001015403905060003390506000600160003373ffffffffffffffffffffffffffffffffffffffff1673ffffffffffffffffffffffffffffffffffffffff168152602001908152602001600020600001819055506000600260008681526020019081526020016000206001018190555060006002600086815260200190815260200160002060000160006101000a81548173ffffffffffffffffffffffffffffffffffffffff021916908373ffffffffffffffffffffffffffffffffffffffff16021790555060008060005b6000803373ffffffffffffffffffffffffffffffffffffffff1673ffffffffffffffffffffffffffffffffffffffff1681526020019081526020016000208054905081101561128557866000803373ffffffffffffffffffffffffffffffffffffffff1673ffffffffffffffffffffffffffffffffffffffff168152602001908152602001600020828154811061125857fe5b906000526020600020906008020160060154141561127857600192508091505b80806001019150506111c5565b508115611297576112968133611d30565b5b600460009054906101000a900473ffffffffffffffffffffffffffffffffffffffff1673ffffffffffffffffffffffffffffffffffffffff1663df85461f876040518263ffffffff1660e01b81526004016112f29190612b8b565b600060405180830381600087803b15801561130c57600080fd5b505af1158015611320573d6000803e3d6000fd5b5050505060007322f23f59a19a5eed1ee9c546f64cc645b92a426390508073ffffffffffffffffffffffffffffffffffffffff166108fc879081150290604051600060405180830381858888f19350505050158015611383573d6000803e3d6000fd5b50856003600082825401925050819055508373ffffffffffffffffffffffffffffffffffffffff166108fc869081150290604051600060405180830381858888f193505050501580156113da573d6000803e3d6000fd5b505050505050505050565b80600160003373ffffffffffffffffffffffffffffffffffffffff1673ffffffffffffffffffffffffffffffffffffffff16815260200190815260200160002060000154101561146a576040517f08c379a000000000000000000000000000000000000000000000000000000000815260040161146190612c80565b60405180910390fd5b80600160003373ffffffffffffffffffffffffffffffffffffffff1673ffffffffffffffffffffffffffffffffffffffff1681526020019081526020016000206000016000828254039250508190555080600160008473ffffffffffffffffffffffffffffffffffffffff1673ffffffffffffffffffffffffffffffffffffffff168152602001908152602001600020600001600082825401925050819055505050565b80600460006101000a81548173ffffffffffffffffffffffffffffffffffffffff021916908373ffffffffffffffffffffffffffffffffffffffff16021790555050565b6000600160003373ffffffffffffffffffffffffffffffffffffffff1673ffffffffffffffffffffffffffffffffffffffff16815260200190815260200160002060000154905090565b600060205281600052604060002081815481106115b557fe5b9060005260206000209060080201600091509150508060000160009054906101000a900473ffffffffffffffffffffffffffffffffffffffff16908060010154908060020160009054906101000a900460ff1690806003015490806004015490806005015490806006015490806007018054600181600116156101000203166002900480601f0160208091040260200160405190810160405280929190818152602001828054600181600116156101000203166002900480156116b95780601f1061168e576101008083540402835291602001916116b9565b820191906000526020600020905b81548152906001019060200180831161169c57829003601f168201915b5050505050905088565b6000816127108084816116d257fe5b040214611714576040517f08c379a000000000000000000000000000000000000000000000000000000000815260040161170b90612c20565b60405180910390fd5b61271060c883028161172257fe5b049050919050565b6000806000806000606060008060606000806000600460009054906101000a900473ffffffffffffffffffffffffffffffffffffffff1673ffffffffffffffffffffffffffffffffffffffff166334911bf08e6040518263ffffffff1660e01b81526004016117999190612b8b565b60006040518083038186803b1580156117b157600080fd5b505afa1580156117c5573d6000803e3d6000fd5b505050506040513d6000823e3d601f19601f820116820180604052508101906117ee9190612517565b955095509550955095509550859b50849a5083965082995081975080985050505050505091939550919395565b60008161271080848161182a57fe5b04021461186c576040517f08c379a000000000000000000000000000000000000000000000000000000000815260040161186390612c20565b60405180910390fd5b61271060c883028161187a57fe5b049050919050565b60016020528060005260406000206000915090508060000154908060010154905082565b60026020528060005260406000206000915090508060000160009054906101000a900473ffffffffffffffffffffffffffffffffffffffff16908060010154908060020160009054906101000a900460ff1690806003015490806004015490806005015490806006015490806007018054600181600116156101000203166002900480601f0160208091040260200160405190810160405280929190818152602001828054600181600116156101000203166002900480156119a95780601f1061197e576101008083540402835291602001916119a9565b820191906000526020600020905b81548152906001019060200180831161198c57829003601f168201915b5050505050905088565b6060806000803373ffffffffffffffffffffffffffffffffffffffff1673ffffffffffffffffffffffffffffffffffffffff1681526020019081526020016000208054905067ffffffffffffffff81118015611a0e57600080fd5b50604051908082528060200260200182016040528015611a3d5781602001602082028036833780820191505090505b50905060005b6000803373ffffffffffffffffffffffffffffffffffffffff1673ffffffffffffffffffffffffffffffffffffffff16815260200190815260200160002080549050811015611b0c576000803373ffffffffffffffffffffffffffffffffffffffff1673ffffffffffffffffffffffffffffffffffffffff1681526020019081526020016000208181548110611ad557fe5b906000526020600020906008020160060154828281518110611af357fe5b6020026020010181815250508080600101915050611a43565b508091505090565b6000806002600084815260200190815260200160002060010154905060006002600085815260200190815260200160002060000160009054906101000a900473ffffffffffffffffffffffffffffffffffffffff16905081600160008373ffffffffffffffffffffffffffffffffffffffff1673ffffffffffffffffffffffffffffffffffffffff168152602001908152602001600020600001600082825403925050819055506000600260008681526020019081526020016000206001018190555060006002600086815260200190815260200160002060000160009054906101000a900473ffffffffffffffffffffffffffffffffffffffff1690506000805b6000808473ffffffffffffffffffffffffffffffffffffffff1673ffffffffffffffffffffffffffffffffffffffff16815260200190815260200160002080549050811015611cd257866000808573ffffffffffffffffffffffffffffffffffffffff1673ffffffffffffffffffffffffffffffffffffffff1681526020019081526020016000208281548110611ca957fe5b9060005260206000209060080201600601541415611cc5578091505b8080600101915050611c16565b50611cdd8183611d30565b8273ffffffffffffffffffffffffffffffffffffffff166108fc859081150290604051600060405180830381858888f19350505050158015611d23573d6000803e3d6000fd5b5083945050505050919050565b6000808273ffffffffffffffffffffffffffffffffffffffff1673ffffffffffffffffffffffffffffffffffffffff168152602001908152602001600020805490508210611d7d57612164565b60008290505b60016000808473ffffffffffffffffffffffffffffffffffffffff1673ffffffffffffffffffffffffffffffffffffffff1681526020019081526020016000208054905003811015611f7e576000808373ffffffffffffffffffffffffffffffffffffffff1673ffffffffffffffffffffffffffffffffffffffff1681526020019081526020016000206001820181548110611e1b57fe5b90600052602060002090600802016000808473ffffffffffffffffffffffffffffffffffffffff1673ffffffffffffffffffffffffffffffffffffffff1681526020019081526020016000208281548110611e7257fe5b90600052602060002090600802016000820160009054906101000a900473ffffffffffffffffffffffffffffffffffffffff168160000160006101000a81548173ffffffffffffffffffffffffffffffffffffffff021916908373ffffffffffffffffffffffffffffffffffffffff160217905550600182015481600101556002820160009054906101000a900460ff168160020160006101000a81548160ff0219169083151502179055506003820154816003015560048201548160040155600582015481600501556006820154816006015560078201816007019080546001816001161561010002031660029004611f6d929190612262565b509050508080600101915050611d83565b506000808273ffffffffffffffffffffffffffffffffffffffff1673ffffffffffffffffffffffffffffffffffffffff16815260200190815260200160002060016000808473ffffffffffffffffffffffffffffffffffffffff1673ffffffffffffffffffffffffffffffffffffffff16815260200190815260200160002080549050038154811061200c57fe5b9060005260206000209060080201600080820160006101000a81549073ffffffffffffffffffffffffffffffffffffffff021916905560018201600090556002820160006101000a81549060ff0219169055600382016000905560048201600090556005820160009055600682016000905560078201600061208e91906122e9565b50506000808273ffffffffffffffffffffffffffffffffffffffff1673ffffffffffffffffffffffffffffffffffffffff1681526020019081526020016000208054806120d757fe5b6001900381819060005260206000209060080201600080820160006101000a81549073ffffffffffffffffffffffffffffffffffffffff021916905560018201600090556002820160006101000a81549060ff0219169055600382016000905560048201600090556005820160009055600682016000905560078201600061215f91906122e9565b505090555b5050565b604051806101000160405280600073ffffffffffffffffffffffffffffffffffffffff1681526020016000815260200160001515815260200160008152602001600081526020016000815260200160008019168152602001606081525090565b828054600181600116156101000203166002900490600052602060002090601f016020900481019282601f1061220957805160ff1916838001178555612237565b82800160010185558215612237579182015b8281111561223657825182559160200191906001019061221b565b5b5090506122449190612331565b5090565b604051806040016040528060008152602001600081525090565b828054600181600116156101000203166002900490600052602060002090601f016020900481019282601f1061229b57805485556122d8565b828001600101855582156122d857600052602060002091601f016020900482015b828111156122d75782548255916001019190600101906122bc565b5b5090506122e59190612331565b5090565b50805460018160011615610100020316600290046000825580601f1061230f575061232e565b601f01602090049060005260206000209081019061232d9190612331565b5b50565b5b8082111561234a576000816000905550600101612332565b5090565b60008135905061235d81612e8e565b92915050565b60008151905061237281612e8e565b92915050565b60008151905061238781612ea5565b92915050565b60008135905061239c81612ebc565b92915050565b6000815190506123b181612ebc565b92915050565b600082601f8301126123c857600080fd5b81356123db6123d682612d11565b612ce4565b915080825260208301602083018583830111156123f757600080fd5b612402838284612e3b565b50505092915050565b600082601f83011261241c57600080fd5b815161242f61242a82612d11565b612ce4565b9150808252602083016020830185838301111561244b57600080fd5b612456838284612e4a565b50505092915050565b60008135905061246e81612ed3565b92915050565b60008151905061248381612ed3565b92915050565b60006020828403121561249b57600080fd5b60006124a98482850161234e565b91505092915050565b6000602082840312156124c457600080fd5b60006124d284828501612363565b91505092915050565b600080604083850312156124ee57600080fd5b60006124fc8582860161234e565b925050602061250d8582860161245f565b9150509250929050565b60008060008060008060c0878903121561253057600080fd5b600061253e89828a01612363565b965050602061254f89828a01612474565b955050604087015167ffffffffffffffff81111561256c57600080fd5b61257889828a0161240b565b945050606061258989828a01612378565b935050608061259a89828a01612474565b92505060a06125ab89828a01612474565b9150509295509295509295565b6000602082840312156125ca57600080fd5b60006125d884828501612378565b91505092915050565b6000602082840312156125f357600080fd5b60006126018482850161238d565b91505092915050565b60006020828403121561261c57600080fd5b600061262a848285016123a2565b91505092915050565b60006020828403121561264557600080fd5b600082013567ffffffffffffffff81111561265f57600080fd5b61266b848285016123b7565b91505092915050565b60006020828403121561268657600080fd5b60006126948482850161245f565b91505092915050565b6000602082840312156126af57600080fd5b60006126bd84828501612474565b91505092915050565b60006126d28383612769565b60208301905092915050565b6126e781612e05565b82525050565b6126f681612db3565b82525050565b600061270782612d4d565b6127118185612d7b565b935061271c83612d3d565b8060005b8381101561274d57815161273488826126c6565b975061273f83612d6e565b925050600181019050612720565b5085935050505092915050565b61276381612dc5565b82525050565b61277281612dd1565b82525050565b61278181612dd1565b82525050565b600061279282612d58565b61279c8185612d8c565b93506127ac818560208601612e4a565b80840191505092915050565b60006127c382612d63565b6127cd8185612d97565b93506127dd818560208601612e4a565b6127e681612e7d565b840191505092915050565b60006127fc82612d63565b6128068185612da8565b9350612816818560208601612e4a565b80840191505092915050565b600061282f603c83612d97565b91507f596f75206d757374206f75747374616b65207468652063757272656e7420737460008301527f616b65686f6c64657220746f2077696e2074686973206c656173652e000000006020830152604082019050919050565b6000612895600983612d97565b91507f746f6f20736d616c6c00000000000000000000000000000000000000000000006000830152602082019050919050565b60006128d5602283612d97565b91507f4f6e6c7920746865207374616b65722063616e2077697468647261772066756e60008301527f64730000000000000000000000000000000000000000000000000000000000006020830152604082019050919050565b600061293b602883612d97565b91507f47657420796f7572206f776e20636f64652e202054686973206f6e652069732060008301527f74616b656e203a700000000000000000000000000000000000000000000000006020830152604082019050919050565b60006129a1602883612d97565b91507f496e73756666696369656e742066756e647320666f7220696e7465726e616c2060008301527f7472616e736665720000000000000000000000000000000000000000000000006020830152604082019050919050565b612a0381612dfb565b82525050565b6000612a158284612787565b915081905092915050565b6000612a2c82846127f1565b915081905092915050565b6000608082019050612a4c60008301876126ed565b612a5960208301866129fa565b612a66604083018561275a565b612a736060830184612778565b95945050505050565b600060c082019050612a9160008301896126ed565b612a9e60208301886129fa565b612aab604083018761275a565b612ab860608301866129fa565b612ac560808301856129fa565b81810360a0830152612ad781846127b8565b9050979650505050505050565b600061010082019050612afa600083018b6126ed565b612b07602083018a6129fa565b612b14604083018961275a565b612b2160608301886129fa565b612b2e60808301876129fa565b612b3b60a08301866129fa565b612b4860c0830185612778565b81810360e0830152612b5a81846127b8565b90509998505050505050505050565b60006020820190508181036000830152612b8381846126fc565b905092915050565b6000602082019050612ba06000830184612778565b92915050565b600060a082019050612bbb6000830188612778565b612bc860208301876129fa565b8181036040830152612bda81866127b8565b9050612be960608301856129fa565b612bf660808301846126de565b9695505050505050565b60006020820190508181036000830152612c1981612822565b9050919050565b60006020820190508181036000830152612c3981612888565b9050919050565b60006020820190508181036000830152612c59816128c8565b9050919050565b60006020820190508181036000830152612c798161292e565b9050919050565b60006020820190508181036000830152612c9981612994565b9050919050565b6000602082019050612cb560008301846129fa565b92915050565b6000604082019050612cd060008301856129fa565b612cdd60208301846129fa565b9392505050565b6000604051905081810181811067ffffffffffffffff82111715612d0757600080fd5b8060405250919050565b600067ffffffffffffffff821115612d2857600080fd5b601f19601f8301169050602081019050919050565b6000819050602082019050919050565b600081519050919050565b600081519050919050565b600081519050919050565b6000602082019050919050565b600082825260208201905092915050565b600081905092915050565b600082825260208201905092915050565b600081905092915050565b6000612dbe82612ddb565b9050919050565b60008115159050919050565b6000819050919050565b600073ffffffffffffffffffffffffffffffffffffffff82169050919050565b6000819050919050565b6000612e1082612e17565b9050919050565b6000612e2282612e29565b9050919050565b6000612e3482612ddb565b9050919050565b82818337600083830152505050565b60005b83811015612e68578082015181840152602081019050612e4d565b83811115612e77576000848401525b50505050565b6000601f19601f8301169050919050565b612e9781612db3565b8114612ea257600080fd5b50565b612eae81612dc5565b8114612eb957600080fd5b50565b612ec581612dd1565b8114612ed057600080fd5b50565b612edc81612dfb565b8114612ee757600080fd5b5056fea2646970667358221220b6a89dc133bad9cb390988190805bb7f9a87a802213ce81377aec1fefaf00e0064736f6c634300060c0033",
  "immutableReferences": {},
  "source": "pragma solidity ^0.6.2;\npragma experimental ABIEncoderV2;\nimport \"./RewardGranter.sol\";\n\ncontract UPCGoldBank { \n     \n    struct Deposit {\n        uint amount;\n        uint timestamps;\n    }\n    \n    struct Balance {\n        uint                        totalBalance;\n        uint                        numPayments;\n        mapping(uint => Deposit)    deposits;\n    }\n    \n    struct LeaseMeta {\n        address  staker;  //address of the staker\n        uint     amountStaked;\n        bool     isOwned;\n        uint     interestGained;\n        uint     stakingStartTimestamp;\n        uint     lastRewardTimestamp;\n        bytes32  upcHash;\n        string   word;\n    }\n\n    \n    //declare an array of AddressToLeases\n    //each will have the address of the staker and the upcHash/meta\n    mapping(address  => LeaseMeta[])   public addressToLease;       //one-to-many relation between an address and scannables (leases/upcs)\n    mapping(address => Balance)     public balanceReceived;\n    \n    /*\n    *  all possible scannables already exist.  this mapping defines the current information about the scannables\n    *  the addressToLease mapping defines which address owns which scannable\n    */\n    mapping(bytes32  => LeaseMeta)   public scannables;       //pass in the upcId and look up the meta about the upc\n    uint public actionPot;\n    RewardGranter rewardGranter;\n    bool isRewardGranterPresent = false;\n\n    function getScannable(bytes32 upcHash) public view returns(address currentStaker, uint amountStaked, bool isOwned, uint rewards,  uint stakingStartTimestamp, string memory word) {\n\n        (address _currentStaker, uint _amountStaked, string memory _word, bool _isOwned, uint _stakingStartTimestamp, uint _rewards) = rewardGranter.getPayoutByHash(upcHash);\n        //(address currentStaker, uint totalBalance, string memory upcId, bool isOwned, uint stakingStartTimestamp, uint rewards, uint lastRewardTimestamp)\n\n\n        currentStaker = _currentStaker;\n        amountStaked = _amountStaked;\n        word = _word;\n        isOwned = _isOwned;\n        stakingStartTimestamp = _stakingStartTimestamp;\n        rewards = _rewards;\n        //lastRewardTimestamp = _lastRewardTimestamp;\n    }\n\n\n\n    function setRewardGranter(address addy) public {\n        //to harvest a reward from a scannable, the caller must be the staker\n        //require(isRewardGranterPresent == false , 'reward granter already set');\n        //rewardGranter =  RewardGranter();\n        rewardGranter = RewardGranter(addy);\n    }\n\n    \n    \n    function harvestRewardForScannable(uint amount) external pure returns (uint) {\n        //to harvest a reward from a scannable, the caller must be the staker\n        require((amount / 10000) * 10000 == amount , 'too small');\n        return amount * 200 / 10000;  //2%\n    }\n    \n\n    function internalTransfer(address _to, uint _amount) public {\n        require(balanceReceived[msg.sender].totalBalance >= _amount, \"Insufficient funds for internal transfer\" );\n        balanceReceived[msg.sender].totalBalance -= _amount;\n        balanceReceived[_to].totalBalance += _amount; \n    }\n\n    function getBalance() public view returns(uint) {\n        return address(this).balance;\n    }\n\n    function getAddressBalance() public view returns(uint) {\n        return balanceReceived[msg.sender].totalBalance;\n    }\n\n    \n    function getMyScannables() public view returns(bytes32[] memory ) {\n        //initialize array to the length of the scannables array\n        bytes32[] memory localScannables = new bytes32[](addressToLease[msg.sender].length);\n\n        for(uint i = 0; i< addressToLease[msg.sender].length; i++) {\n            localScannables[i] = addressToLease[msg.sender][i].upcHash;\n        }       \n\n        return localScannables;\n    }\n    \n    \n    function getCostToEvict(string memory upcId) public view returns(address currentStaker, uint currentAmountStaked, bool currentIsOwned, bytes32 upcHash) {\n        upcHash = sha256(abi.encodePacked(upcId));\n        currentStaker = scannables[upcHash].staker;\n        currentAmountStaked = scannables[upcHash].amountStaked;\n        currentIsOwned = scannables[upcHash].isOwned;\n    }\n\n    function depositMoney(string memory upcId) public payable {\n        bytes32 upcHash = sha256(abi.encodePacked(upcId));\n\n        \n        uint _addToActionPot = this.calculateFee(msg.value);\n        uint _addToBalance = msg.value - _addToActionPot; //take eth out to do good with\n\n        //look into registering an unstoppable domain id.  verify on the blockchain that the msg.sender == the owner of the domain\n        //(, uint currentAmountStaked ,) = this.getCostToEvict(upcId);\n        bool owned = rewardGranter.isOwned(upcHash);\n        address currentStaker;\n        if(owned) {\n            currentStaker = rewardGranter.getOwner(upcHash);\n        }\n        \n        if(owned) {\n            require(currentStaker == msg.sender , \"Get your own code.  This one is taken :p\");\n        }\n\n        uint currentAmountStaked = scannables[upcHash].amountStaked;\n        bool restaking = false;\n        \n        if(msg.sender != scannables[upcHash].staker) {\n            require(_addToBalance > currentAmountStaked, \"You must outstake the current stakeholder to win this lease.\");\n        }\n        else {\n            restaking = true;\n        }\n        \n        if(msg.sender != scannables[upcHash].staker) {\n            uint evictionPrice = evict(upcHash);\n            \n            //after an eviction, currentAmountStaked should equal zero to make way for the new owner's currentAmountStaked\n            currentAmountStaked = scannables[upcHash].amountStaked;\n            \n            //AFTER EVICTION, REMOVE THE UPC FROM THE UPC TO ADDRESS MAPPING AND ADD IT TO THE NEW OWNER'S MAPPING\n        }\n\n        LeaseMeta memory lm;\n        lm.staker = msg.sender;\n        lm.amountStaked = currentAmountStaked + _addToBalance;\n        \n        if(!restaking) {\n            lm.isOwned =  false;\n        }\n        else {\n            lm.isOwned =  true;\n        }\n        \n        lm.stakingStartTimestamp = now;\n        lm.upcHash = upcHash;\n        lm.word = upcId;\n        scannables[upcHash] = lm;\n        \n        //look through the current scannables and only add if \n        //the upcId is not already with user.  dont want to add new entry if user increases their stake\n        bool addScannableToAddress = true;\n        \n        for(uint i = 0; i< addressToLease[msg.sender].length; i++) {\n            if(addressToLease[msg.sender][i].upcHash == upcHash) {\n                addScannableToAddress = false;\n            }\n        }\n        \n        if(addScannableToAddress) {\n            addressToLease[msg.sender].push(lm);\n        }\n\n        //require(balanceReceived[msg.sender].totalBalance >= _amount, \"Insufficient funds for internal transfer\" );\n\n        balanceReceived[msg.sender].totalBalance += _addToBalance;\n        Deposit memory deposit = Deposit(_addToBalance, now);\n        balanceReceived[msg.sender].deposits[balanceReceived[msg.sender].numPayments] = deposit;\n        balanceReceived[msg.sender].numPayments++;\n        \n        \n        \n        //rewardGranter = RewardGranter(address1);\n        //add this scannable to the rewards array\n        //pass the upcHash, total balance, word, starttimestamp, user\n        rewardGranter.addRewardableScannable(upcHash, (currentAmountStaked + _addToBalance), upcId, lm.stakingStartTimestamp, msg.sender);\n\n\n\n        address payable _actionPot = payable(0x22F23F59A19a5EEd1eE9c546F64CC645B92a4263);\n        _actionPot.transfer(_addToActionPot);\n        actionPot += _addToActionPot;\n\n    }\n    \n    //function donateUPC \n    \n    \n    \n    function calculateFee(uint amount) external pure returns (uint) {\n        require((amount / 10000) * 10000 == amount , 'too small');\n        return amount * 200 / 10000;  //2%\n    }\n\n    function evict(bytes32 upcHash) private returns (uint) {\n\n        //require(scannables[upcHash].isOwned == false, \"Can not evict from an occupied scannable.\");\n        uint toWithdraw = scannables[upcHash].amountStaked;\n        address payable _to = address(uint160(scannables[upcHash].staker));\n        balanceReceived[_to].totalBalance -= toWithdraw;\n        scannables[upcHash].amountStaked = 0;\n        \n        \n        //find current owner and remove them so that the new owner can be recorded in the addressToLease\n        address currentOwner = scannables[upcHash].staker;\n        uint deleteIndex = 0;\n        for(uint i = 0; i< addressToLease[currentOwner].length; i++) {\n            if(addressToLease[currentOwner][i].upcHash == upcHash) {\n                deleteIndex = i;\n            }\n        }\n        \n        removeUpcFromA2L(deleteIndex,currentOwner);\n        \n        _to.transfer(toWithdraw);\n        return toWithdraw;\n    }\n    \n    //remove upc from the address to lease structure\n    function removeUpcFromA2L(uint index, address sender)  private {\n        if (index >= addressToLease[sender].length) return;\n\n        for (uint i = index; i<addressToLease[sender].length-1; i++){\n            addressToLease[sender][i] = addressToLease[sender][i+1];\n        }\n        delete addressToLease[sender][addressToLease[sender].length-1];\n        addressToLease[sender].pop();\n    }\n    \n    \n    \n    //withdraw function should be the only instance where the scannable is removed from the rewardToScannable structure\n    function withdraw(string memory upcId) public {\n        bytes32 upcHash = sha256(abi.encodePacked(upcId));\n        require(msg.sender == scannables[upcHash].staker, \"Only the staker can withdraw funds\" );\n        \n        uint _addToActionPot = this.calculateFee(scannables[upcHash].amountStaked);\n        uint toWithdraw = scannables[upcHash].amountStaked - _addToActionPot;\n        address payable _to = msg.sender;\n        balanceReceived[msg.sender].totalBalance = 0;\n        scannables[upcHash].amountStaked = 0;\n        scannables[upcHash].staker = address(0x0);\n        \n        bool doDelete = false;\n        uint deleteIndex = 0;\n        for(uint i = 0; i< addressToLease[msg.sender].length; i++) {\n            if(addressToLease[msg.sender][i].upcHash == upcHash) {\n                doDelete = true;\n                deleteIndex = i;\n            }\n        }\n        \n        if(doDelete) {\n            removeUpcFromA2L(deleteIndex,msg.sender);\n        }\n        \n        //\n        rewardGranter.removeRewardableScannable(upcHash);\n\n        address payable _actionPot =  payable(0x22F23F59A19a5EEd1eE9c546F64CC645B92a4263);\n        _actionPot.transfer(_addToActionPot);\n        actionPot += _addToActionPot;\n\n        _to.transfer(toWithdraw);\n    }\n    \n}\n",
  "sourcePath": "/home/tenten/Projects/Mountain/upc-eth/src/contracts/UPCGoldBank.sol",
  "compiler": {
    "name": "solc",
    "version": "0.6.12+commit.27d51765.Emscripten.clang"
  },
  "schemaVersion": "3.2.5",
  "updatedAt": "2020-12-04T00:27:45.760Z",
  "networkType": "ethereum",
  "devdoc": {
    "kind": "dev",
    "methods": {},
    "version": 1
  },
  "userdoc": {
    "kind": "user",
    "methods": {},
    "version": 1
  }
}